:020000040800F2
:1000000000000220F9B60008292100082F2100086D
:10001000352100083B2100084121000800000000B4
:100020000000000000000000000000004721000860
:10003000552100080000000063210008712100081C
:1000400049B7000849B7000849B7000849B7000890
:1000500049B7000849B7000849B7000849B7000880
:1000600049B7000849B7000849B7000849B7000870
:1000700049B7000849B7000849B7000849B7000860
:100080007D21000849B7000849B7000800000000BA
:1000900000000000000000000000000049B7000858
:1000A00049B7000849B7000849B7000849B7000830
:1000B00049B7000849B7000849B7000849B7000820
:1000C00049B7000849B7000849B7000849B7000810
:1000D00049B7000849B70008912100080000000056
:1000E00049B7000849B7000849B7000800000000F8
:1000F00000000000000000000000000049B70008F8
:100100000000000049B7000849B7000849B70008D7
:1001100000000000000000000000000000000000DF
:1001200049B70008A921000849B7000849B70008E5
:1001300049B70008000000000000000000000000B7
:1001400000000000000000000000000049B70008A7
:1001500049B7000849B7000849B70008BD210008A1
:1001600049B7000849B7000800000000000000007F
:10017000000000000000000000000000000000007F
:100180000000000049B70008000000000000000067
:0801900049B7000849B7000857
:1001A00010B5054C237833B9044B13B10448AFF3B1
:1001B00000800123237010BD2C03002000000000EC
:1001C000DCC9000808B5034B1BB103490348AFF372
:1001D000008008BD0000000030030020DCC90008DA
:1001E00053B94AB9002908BF00281CBF4FF0FF319E
:1001F0004FF0FF3000F072B9ADF1080C6DE904CE9C
:1002000000F006F8DDF804E0DDE9022304B07047F1
:100210002DE9F047089E04468846002B4BD18A42C0
:10022000154667D9B2FA82F24AB1C2F1200701FA43
:1002300002F320FA07F7954047EA030894404FEA93
:10024000154E230CB8FBFEF71FFA85FC0EFB178832
:1002500043EA084307FB0CF1994209D9EB1807F16F
:10026000FF3080F01B81994240F21881023F2B44FD
:100270005B1AA4B2B3FBFEF00EFB103344EA034456
:1002800000FB0CFCA44509D92C1900F1FF3380F0C8
:100290000781A44540F2048102382C4440EA07401B
:1002A000A4EB0C0400271EB1D4400023C6E9004390
:1002B0003946BDE8F0878B4209D9002E00F0EB806B
:1002C0000027C6E9000138463946BDE8F087B3FA91
:1002D00083F7002F47D18B4202D3824200F2FA808B
:1002E000841A61EB030301209846002EE0D0C6E992
:1002F0000048DDE702B9FFDEB2FA82F2002A40F0E0
:100300008F80491B4FEA154E1FFA85F80127B1FB74
:10031000FEFC230C0EFB1C1143EA014308FB0CF10D
:10032000994207D9EB180CF1FF3002D2994200F242
:10033000CD808446591AA3B2B1FBFEF00EFB101417
:1003400043EA044408FB00F8A04507D92C1900F142
:10035000FF3302D2A04500F2B6801846A4EB080491
:1003600040EA0C409FE7C7F1200CBB4022FA0CFE8C
:100370004EEA030E01FA07F420FA0CF521FA0CF309
:100380004FEA1E482543B3FBF8F92C0C08FB193340
:100390001FFA8EFA44EA034309FB0AF49C4202FA6C
:1003A00007F200FA07F10BD91EEB030309F1FF3046
:1003B00080F087809C4240F28480A9F10209734456
:1003C0001B1BADB2B3FBF8F008FB103345EA034446
:1003D00000FB0AFAA24508D91EEB040400F1FF3322
:1003E0006BD2A24569D90238744440EA0940A0FBA7
:1003F0000289A4EB0A044C45C2464B4654D351D063
:10040000002E69D0B1EB0A0564EB030404FA0CFC7E
:10041000FD40FC404CEA0505C6E90054002747E7CB
:10042000C2F1200320FA03F7954001FA02F021FA05
:1004300003F34FEA154E3843010CB3FBFEF71FFAE6
:1004400085F80EFB173341EA034107FB08F38B42A3
:1004500004FA02F407D9691807F1FF3C2FD28B4246
:100460002DD9023F2944CB1A81B2B3FBFEF00EFB1B
:10047000103341EA034100FB08F38B4207D96918A6
:1004800000F1FF3C17D28B4215D902382944C91A12
:1004900040EA07473BE73746304609E70746E7E6C5
:1004A0001846FBE64145ABD2B8EB020A69EB0E02F7
:1004B00001381346A4E76046E9E7184695E7674622
:1004C000D1E781467CE702382C4447E7ACF1020CC7
:1004D0002B442FE7384608E73746E9E6704700BF68
:1004E00010F8012B11F8013B012A28BF9A42F7D0DE
:1004F000D01A7047034613F8012B002AFBD1181AB3
:1005000001387047000000000000000000000000FB
:1005100001F0FF01102A2BDB10F0070F08D010F8B4
:10052000013B013A8B422DD010F0070F42B3F6D1B8
:10053000F0B441EA012141EA014122F007047FF0D1
:1005400000070023F0E80256083C85EA010586EA28
:10055000010685FA47F5A3FA87F586FA47F6A5FA64
:1005600087F68EB9EED1F0BC01F0FF0102F0070270
:1005700032B110F8013B013A83EA010313B1F8D11B
:100580000020704701387047002D06BF35460338FC
:10059000073815F0010F07D1013015F4807F02BF35
:1005A000013015F4C03F0130F0BC0138704700BF86
:1005B00080B582B000AF7860391D4FF6FF7301221D
:1005C00003480AF086F87B6818460837BD4680BDA8
:1005D00024300020B0B5ADF6C82D02AF6C4A6D4B8B
:1005E00014461D460FCD20606160A260E36028685C
:1005F0002061AB88AA79A3821346A375664A674B2C
:1006000003CB10605160664A664B03CB10605160AB
:100610001B881381644A654B03CB106051601B78C3
:100620001372634B634A10681860634B634A106827
:100630001860634B634A10681860634B634A106824
:100640001860634B634A10681860634B634A106814
:100650001860634B634A10681860634B634A106804
:10066000186007F023FA00F051FC00F075FD00F06F
:100670003DFD00F0D7FC00F007FD5D4B1B68DA681C
:100680005B4B1B6822F01002DA605A4B1B68DA6879
:10069000584B1B6822F01002DA6000F095FC01F064
:1006A0007DF8092387F8603A534B05221A70524BA4
:1006B00000225A70504B00229A704F4B0022DA7081
:1006C0004D4B00221A714C4B00225A714A4B0022AA
:1006D0009A71494B0022DA71002387F8BF3A35E05E
:1006E000002387F8BE3A28E097F8BF3A07F52C6256
:1006F000134413F8603C97F8BE2A9A420CD297F83C
:10070000BF2A97F8BE3A120107F52C610A44134438
:10071000903B00221A700BE097F8BF2A97F8BE3A78
:10072000120107F52C610A441344903BFB221A7016
:1007300097F8BE3A013387F8BE3A97F8BE3A0F2BC6
:10074000D2D997F8BF3A013387F8BF3A97F8BF3A42
:10075000002BC5D0002387F8BD3A6BE0002387F853
:10076000BC3A5EE097F8BD3A234AD35C97F8BC2ABE
:100770009A4243D297F8BD2A97F8BC3A1201134423
:100780005B0007F52C621344002223F8802C43E021
:10079000B4090020F4C90008700900200CCA000840
:1007A000F808002014CA0008E825002020CA000824
:1007B0008C0900202CCA00089109002030CA0008CA
:1007C0009609002034CA00089B09002038CA000896
:1007D000A00900203CCA0008A509002040CA000862
:1007E000AA09002044CA0008AF09002048CA00082E
:1007F000F82C0020243000206427002097F8BD2A20
:1008000097F8BC3A120113445B0007F52C621344BD
:100810004FF6FE7223F8802C97F8BC3A013387F824
:10082000BC3A97F8BC3A0F2B9CD997F8BD3A0133E4
:1008300087F8BD3A97F8BD3A012B8FD9EE2387F898
:10084000973A772387F8963AEF2387F8953AEC237F
:1008500087F8943A042387F82F3A01224FF4006175
:10086000DF4808F04BF801224FF48051DC4808F0D3
:1008700045F801221021DB4808F040F80122202130
:10088000D84808F03BF801224FF40051D44808F052
:1008900035F801224FF48041D14808F02FF80122A9
:1008A0004FF40041CE4808F029F801221021CE482B
:1008B00008F024F800224021CA4808F01FF89620CA
:1008C00007F066F901224021C64808F017F83220E7
:1008D00007F05EF997F8973A99B24FF47A730122CC
:1008E000C24808F07BFD034687F8233A97F8943A0C
:1008F00099B24FF47A730122BC4808F06FFD0346A9
:1009000087F8233A97F8973A99B24FF47A7301220D
:10091000B64808F063FD034687F8233A012387F8B9
:10092000223A00F0EBFF362387F8933A302387F81A
:10093000923A332387F8913A392387F8903A422341
:1009400087F88F3A452387F88E3A482387F88D3AFF
:10095000512387F88C3A542387F88B3A572387F82A
:100960008A3A602387F8893A632387F8883A6623AE
:1009700087F8873A692387F8863A712387F8853A9A
:10098000752387F8843A002387F8833A0023C7F851
:100990001C3A4FF0000307F67C2213604FF000036F
:1009A00007F6782213604FF0000307F674221360F5
:1009B0004FF0000307F5276213604FF0000307F6BE
:1009C0006C2213608A4B07F668221360B7EE007A38
:1009D00007F66823D3ED007A77EE677A07F664238B
:1009E000C3ED007A0023C7F8B83A0023C7F8B43A39
:1009F0004FF0000307F52B6213604FF0000307F67A
:100A0000AC2213604FF0000307F6A82213604FF0EA
:100A1000000307F6A4221360012387F8223A97F80F
:100A2000973A99B207F622224FF47A730093012382
:100A30006E4808F0B5F8034687F8233A97F8973AD6
:100A400099B207F62F224FF47A7300930123674877
:100A500008F0A4F9034687F8233A07F61C23194641
:100A6000644801F098FC644B1B8807EE903AB8EE9E
:100A7000E77A07F66823D3ED007A27EE277AD7F8CE
:100A80001C3A07EE903AF8EE676A07F66423D3ED56
:100A9000007A66EEA77A77EE277AFCEEE77A17EE11
:100AA000903A9AB2544B1A8007F61C2319465348C1
:100AB00001F071FC504B5B8807EE903AB8EEE77A94
:100AC00007F66823D3ED007A27EE277AD7F81C3A89
:100AD00007EE903AF8EE676A07F66423D3ED007AE2
:100AE00066EEA77A77EE277AFCEEE77A17EE903A71
:100AF0009AB2414B5A8007F61C231946404801F030
:100B00004AFC3D4B9B8807EE903AB8EEE77A07F631
:100B10006823D3ED007A27EE277AD7F81C3A07EE40
:100B2000903AF8EE676A07F66423D3ED007A66EE32
:100B3000A77A77EE277AFCEEE77A17EE903A9AB228
:100B40002D4B9A8007F61C2319462E4801F023FCF2
:100B5000294BDB8807EE903AB8EEE77A07F6682370
:100B6000D3ED007A27EE277AD7F81C3A07EE903AB1
:100B7000F8EE676A07F66423D3ED007A66EEA77A8B
:100B800077EE277AFCEEE77A17EE903A9AB21A4B94
:100B9000DA8007F61C2319461B4801F0FCFB164BB4
:100BA0001B8907EE903AB8EEE77A07F66823D3ED93
:100BB000007A27EE277AD7F81C3A07EE903AF8EE3B
:100BC000676A07F66423D3ED007A66EEA77A77EEBC
:100BD000277AFCEEE77A17EE903A9AB216E000BF59
:100BE0000008024000040240000002401C090020EE
:100BF000CDCC4C3FA80C0020442D0020080E002036
:100C0000680F0020C810002028120020B84B1A815D
:100C1000B74B198807F20463D7F8B82A23F81210E3
:100C2000B34B598807F60403D7F8B82A23F81210F3
:100C3000AF4B99883B1DD7F8B82A23F81210AC4B5C
:100C4000D98807F50173D7F8B82A23F81210A84BF2
:100C5000198907F20443D7F8B82A23F8121007F6C7
:100C60007823D3ED007AFCEEE77A17EE903A99B24A
:100C700007F60403D7F8B82A23F81210052006F067
:100C800087FFD7F8B83A0133C7F8B83AD7F8B83A77
:100C9000202B40F02881974B1B68DA68954B1B6826
:100CA00042F01002DA60C82006F072FF002387F8D5
:100CB000A33A39E0002387F8A23A28E097F8A32A5C
:100CC00097F8A23A8A491201134431F81330C3F558
:100CD0008573002BB8BF5B42874A82FB03129210D8
:100CE000DB17D31A9AB2854B1A80844B198897F870
:100CF000A32A97F8A23AC8B2814912010A441344C0
:100D000002461A7097F8A23A013387F8A23A97F888
:100D1000A33A7C4AD35C97F8A22A9A42CED397F89A
:100D2000A33A013387F8A33A97F8A33A002BC1D02E
:100D30004FF0000307F6A82213604FF0000307F6F8
:100D4000A42213604FF0000307F52B6213604FF0ED
:100D5000000307F6AC2213600023C7F89C3A2BE08F
:100D600007F60403D7F89C2A33F8123007EE903ABE
:100D7000F8EEE77A07F6A82393ED007A77EE277A64
:100D800007F6A823C3ED007A3B1DD7F89C2A33F859
:100D9000123007EE903AF8EEE77A07F6A42393EDC7
:100DA000007A77EE277A07F6A423C3ED007AD7F806
:100DB0009C3A0133C7F89C3AD7F89C3A7F2BCFDD99
:100DC00007F6A42393ED007ADFED4F6AC7EE267A8B
:100DD00007F6A423C3ED007A07F6A82393ED007A63
:100DE000DFED496AC7EE267A07F6A823C3ED007A3D
:100DF0000023C7F8983A62E007F60403D7F8982A68
:100E000033F8123007EE903AF8EEE77A07F6A823A7
:100E100093ED007A37EE677A07F60403D7F8982A3D
:100E200033F8123007EE903AF8EEE77A07F6A82387
:100E3000D3ED006A76EEE77A27EE277ADFED326AA5
:100E4000C7EE267A07F52B6393ED007A77EE277AC3
:100E500007F52B63C3ED007A3B1DD7F8982A33F8CA
:100E6000123007EE903AF8EEE77A07F6A42393EDF6
:100E7000007A37EE677A3B1DD7F8982A33F812309C
:100E800007EE903AF8EEE77A07F6A423D3ED006A6E
:100E900076EEE77A27EE277ADFED1B6AC7EE267A31
:100EA00007F6AC2393ED007A77EE277A07F6AC23AA
:100EB000C3ED007AD7F8983A0133C7F8983AD7F8D3
:100EC000983A7F2B98DDD7F8B43A0133C7F8B43A93
:100ED0000023C7F8B83A074B1B68DA68054B1B6854
:100EE00022F01002DA60012006F052FE94E500BF05
:100EF000442D0020F82C0020310CC330F8040020D1
:100F0000D8250020642700200000004380B594B05D
:100F100000AF07F120033022002118460AF04BFCF5
:100F200007F10C0300221A605A609A60DA601A61B5
:100F30000023BB60224B1B6C214A43F08053136497
:100F40001F4B1B6C03F08053BB60BB6800237B60AE
:100F50001C4B1B681B4A43F440431360194B1B682E
:100F600003F440437B607B6802233B620123FB6206
:100F700010233B630023BB6307F12003184608F0EE
:100F80001FFF0346002B01D000F0B4FC0F23FB60D1
:100F900000233B6100237B610023BB610023FB61D5
:100FA00007F10C030021184609F07AF90346002BDB
:100FB00001D000F09FFC00BF5037BD4680BD00BF90
:100FC000003802400070004080B500AF124B134A59
:100FD0001A60114B124A5A600F4B00229A600E4B56
:100FE0000022DA600C4B4FF480421A610A4B002257
:100FF0005A61094B00229A61074B0022DA61064BC5
:1010000000221A62044807F093FC0346002B01D02B
:1010100000F070FC00BF80BD1C090020005400409F
:10102000A086010080B500AF154B164A1A60144B1C
:101030004FF4E1325A60124B00229A60104B0022AA
:10104000DA600F4B00221A610D4B0C225A610C4BD7
:1010500000229A610A4B0022DA61094809F0ECFA91
:101060000346002B01D000F045FC054B1B68DA68F5
:10107000034B1B6842F01002DA6000BF80BD00BF66
:10108000243000200044004080B500AF154B164AC4
:101090001A60144B4FF461425A60124B00229A605E
:1010A000104B0022DA600F4B00221A610D4B0C220C
:1010B0005A610C4B00229A610A4B0022DA610948FE
:1010C00009F0BAFA0346002B01D000F013FC054BDF
:1010D0001B68DA68034B1B6842F01002DA6000BF3D
:1010E00080BD00BFF82C00200014014080B582B004
:1010F00000AF00237B60174B1B6B164A43F40013B1
:101100001363144B1B6B03F400137B607B68002399
:101110003B60104B1B6B0F4A43F4800313630D4B72
:101120001B6B03F480033B603B680022002110200E
:1011300006F02BFE102006F044FE0022002139208C
:1011400006F023FE392006F03CFE00BF0837BD46FE
:1011500080BD00BF0038024080B485B000AF0023DE
:10116000FB60174B1B6B164A43F001031363144BD0
:101170001B6B03F00103FB60FB680023BB60104B9B
:101180001B6B0F4A43F0040313630D4B1B6B03F0FF
:101190000403BB60BB6800237B60094B1B6B084AE0
:1011A00043F002031363064B1B6B03F002037B60E7
:1011B0007B6800BF1437BD465DF8047B704700BFF5
:1011C0000038024080B483B000AF786000BF0C37B5
:1011D000BD465DF8047B704780B584B000AF786091
:1011E0007B681B680E4A934215D10E490E48FFF7E3
:1011F00077F902460D4B1A600023FB8108E0FA895B
:10120000FB890849895C0A4AD154FB890133FB8177
:10121000FB89092BF3D900BF1037BD4680BD00BF45
:10122000001401402C0400204CCA0008F4040020E3
:10123000C8280020B0B58EB000AF78607B681B680E
:10124000A64A934240F04C82A54B1B681B6803F0F2
:101250001003102B40F0858200233B61A04B1B68DC
:101260001B683B619E4B1B685B683B613B699C480C
:1012700009F048FB9B4B1B685B68DAB26FF03703E1
:101280009B1ADAB2984B1A70C822002197480AF0CC
:1012900092FA0023FB86954B01221A70934B24226D
:1012A0005A70924B4C229A70904B6522DA708F4B99
:1012B0006E221A718D4B3A225A718C4B30229A71E0
:1012C0008A4B3922DA71894B38221A72874B2422D1
:1012D0005A720A23FB86864A07F1180392E8030034
:1012E000186004331970834BBB628248FFF702F920
:1012F0000346FB84FB8E7D4A9C187E48FFF7FAF874
:1013000003461A467B4920460AF04AFA7948FFF715
:10131000F1F803469AB2FB8E1344FB86FB8E734AA8
:101320002421D154FB8E0133FB86FB8E6F4A9C181F
:101330007148FFF7DFF803461A466F4920460AF066
:101340002FFA6D48FFF7D6F803469AB2FB8E134486
:10135000FB86FB8E654A3921D154FB8E0133FB8617
:10136000FB8E624A2421D154FB8E0133FB86FB8E17
:101370005E4A9C186148FFF7BDF803461A465F496C
:1013800020460AF00DFA5D48FFF7B4F803469AB21A
:10139000FB8E1344FB86FB8E544A3821D154FB8EBE
:1013A0000133FB86FB8E514A2421D154FB8E01333D
:1013B000FB86FB8E4D4A9C185148FFF79BF803466D
:1013C0001A464F4920460AF0EBF94D48FFF792F8CC
:1013D00003469AB2FB8E1344FB86FB8E434A3021B0
:1013E000D154FB8E0133FB86FB8E404A2421D1541D
:1013F000FB8E0133FB86002387F83530A3E0FB8E9C
:101400003A4A9C1897F8352013469B0013443D4AEE
:101410009D1897F8352013469B001344394A13440E
:101420001846FFF767F803461A46294620460AF091
:10143000B7F997F8352013469B001344314A1344FB
:101440001846FFF757F803469AB2FB8E1344FB8603
:10145000002387F8343069E097F8352097F8343066
:10146000294912010A4413441B78284AA2FB03238A
:10147000DB08DAB2FB8E3032D1B21C4AD154FB8E7B
:101480000133FB8697F8352097F834301E49120156
:101490000A4413441A781D4BA3FB0213D9080B46C8
:1014A0009B000B445B00D31ADAB2FB8E3032D1B210
:1014B0000E4AD154FB8E0133FB8697F8342097F8FF
:1014C00035301349CB5C013B9A4223D1FB8E074A4E
:1014D0002421D154FB8E0133FB8622E0001401400D
:1014E000F82C002038070020490300206430002039
:1014F00058CA0008B409002070090020F80800202C
:10150000E82500208C090020D8250020CDCCCCCCAB
:1015100064270020FB8E954A2C21D154FB8E013389
:10152000FB8697F83430013387F8343097F835303C
:101530008F4AD35C97F834209A428DD397F8353090
:10154000013387F8353097F83530002B3FF457AF2B
:10155000FB8E864A9C1807F118031846FEF7CAFF4F
:10156000024607F11803194620460AF019F907F157
:1015700018031846FEF7BEFF03469AB2FB8E1344CB
:10158000FB867A48FEF7B6FF034687F82530FB8EC8
:101590000533784A82FB03125211DB17D31ADBB2F0
:1015A0003033DAB2714B9A71FB8E0533724A82FB8B
:1015B00003129210DB17D21A6F4B83FB02139910A0
:1015C000D317C91A0B469B000B445B00D11ACBB250
:1015D0003033DAB2654BDA71FB8E5A1D664B83FBF2
:1015E00002139910D317C91A0B469B000B445B00DA
:1015F000D11ACBB23033DAB25C4B1A7200233B63A0
:101600000023FB620BE0594AFB6A13441B78DBB2F0
:101610001A463B6B13443B63FB6A0133FB62FB8E50
:10162000FA6A9A42EFDB3B6BDBB23B623B6A514AA0
:10163000A2FB03235B09DBB23B753B6A4F4AA2FB6B
:101640000323D9084D4BA3FB0123DA0813469B0063
:1016500013445B00CA1AD3B27B75396A474BA3FBAC
:101660000123DA0813469B0013445B00CA1AD3B265
:10167000BB753A7DFB8E3032D1B23C4AD154FB8EE1
:101680000133FB867A7DFB8E3032D1B2374AD1549A
:10169000FB8E0133FB86BA7DFB8E3032D1B2334AEA
:1016A000D154FB8E0133FB86FB8E304A0D21D15481
:1016B000FB8E0133FB86FB8E2C4A0A21D154FB8E14
:1016C0000133FB86FB8E01339AB2642327492C48F1
:1016D00008F0FFFFC8222B49294809F093F840E0A1
:1016E0007B681B68284A93423BD1284B1B681B68C8
:1016F00003F01003102B34D10023FB60234B1B6835
:101700001B68FB60214B1B685B68FB60FB681F4824
:1017100009F0F8F81E4B1B685B68DAB26FF037030C
:101720009B1ADAB21B4B1A70104A1B4B1046194613
:10173000C8231A460AF034F8164B1B789AB24FF4B5
:1017400000730A490E4808F0C4FF124B1B781A4672
:10175000002106480AF02FF8C8220F490B4809F06B
:1017600051F800BF3837BD46B0BD00BF643000201F
:10177000642700201F85EB5167666666CDCCCCCC14
:10178000F82C00202C0400200044004024300020CD
:1017900078050020490300205803002080B586B05A
:1017A00000AF3B1D00221A605A609A60DA601A612D
:1017B00000233B6140237B600123BB600023FB606F
:1017C0003B1D1946214806F017FF4FF400637B606C
:1017D0003B1D19461E4806F00FFF4FF480537B60F7
:1017E0003B1D19461A4806F007FF10237B603B1D7E
:1017F0001946164806F000FF20237B603B1D194662
:10180000124806F0F9FE4FF400537B603B1D194669
:101810000F4806F0F1FE4FF480437B603B1D1946F4
:101820000B4806F0E9FE4FF400437B603B1D194670
:10183000074806F0E1FE10237B603B1D1946054872
:1018400006F0DAFE00BF1837BD4680BD0004024036
:10185000000802400000024080B584B000AF78600C
:101860000B46FB707B68292283F85C217B68012290
:1018700083F85D217B686422A3F85E21FB7819461A
:10188000786805F0ABFF0346002B0DD1FB7899B2C9
:101890004FF47A730122084807F0A0FD0346FB735A
:1018A00006480AF005F802E005480AF001F800BF12
:1018B0001037BD4680BD00BF1C09002060CA00086B
:1018C00078CA000880B5C2B000AF3B1D18603B4627
:1018D00019603B463A1D07F108001B68126804496D
:1018E00009F0EEFF00BF07F58477BD4680BD00BF5D
:1018F00094CA000880B400AF72B6FEE780B58CB021
:1019000002AFEE2387F8233005233B7100237B7160
:101910000023BB710023FB7100233B7200237B7209
:101920000023BB720023FB72362387F8223030235A
:1019300087F82130332387F820303923FB7742237F
:10194000BB7745237B7748233B775123FB76542392
:10195000BB7657237B7660233B766323FB75662338
:10196000BB7569237B7571233B757523FB7401235C
:10197000FB700023BB7097F8233099B2FA1C4FF428
:101980007A7300930123DA4807F00AF90346BB741F
:1019900097F8233099B2BA1C4FF47A73009301235D
:1019A000D34807F0FBF90346BB7407F1080327226D
:1019B000CF49184600F0F2F907F108030022002190
:1019C000184600F01AFA07F1080300220121184610
:1019D00000F013FAFF23FB7307F1080301211846F7
:1019E00000F022FA0023BB7307F108030021184618
:1019F00000F01AFA0023FB7307F1080301211846CF
:101A000000F012FA4FF47A7006F0C2F80023FB845B
:101A1000B9E1FB8C072B2BD801A252F823F000BFB1
:101A2000411A0008471A00084D1A0008531A000806
:101A3000591A00085F1A0008651A00086B1A000896
:101A40000123FB7014E00223FB7011E00423FB7000
:101A50000EE00823FB700BE01023FB7008E020234E
:101A6000FB7005E04023FB7002E08023FB7000BFA9
:101A700097F8233099B2FA1C4FF47A73009301233C
:101A80009B4807F08DF80346BB7497F8233099B252
:101A9000BA1C4FF47A7300930123954807F07EF93E
:101AA0000346BB7407F1080327229149184600F04A
:101AB00075F907F1080300220021184600F09DF98E
:101AC00007F1080300220121184600F096F9FF23D0
:101AD000FB7307F108030121184600F0A5F99620D1
:101AE00006F056F80023BB7307F1080300211846DF
:101AF00000F09AF90023FB7307F10803012118464F
:101B000000F092F94FF47A7006F042F80023BB849B
:101B10002BE1BB8C072B00F2258101A252F823F0A8
:101B2000411B00088B1B0008D91B0008271C00085C
:101B3000711C0008BB1C0008F91C00082F1D0008C0
:101B40000123FB7307F108030121184600F06CF92B
:101B50004FF47A7006F01CF8FB8C4FF4B05202FB85
:101B600003F3644A134497F8222011461846FFF7FE
:101B700073FE97F8223099B24FF47A7301225C48D1
:101B800007F02CFC0346BB74ECE00323FB7307F166
:101B900008030121184600F047F94FF47A7005F068
:101BA000F7FFFB8C4FF4B05202FB03F303F5B07365
:101BB000504A134497F8212011461846FFF74CFE6F
:101BC00097F8213099B24FF47A730122484807F010
:101BD00005FC0346BB74C5E00723FB7307F108034C
:101BE0000121184600F020F94FF47A7005F0D0FF7B
:101BF000FB8C4FF4B05202FB03F303F530733D4A04
:101C0000134497F8202011461846FFF725FE97F851
:101C1000203099B24FF47A730122354807F0DEFB89
:101C20000346BB749EE00F23FB7307F108030121F9
:101C3000184600F0F9F84FF47A7005F0A9FFFB8C14
:101C40004FF4B05202FB03F303F58463294A1344B3
:101C5000FA7F11461846FFF7FFFDFB7F99B24FF45C
:101C60007A730122224807F0B9FB0346BB7479E07E
:101C70001F23FB7307F108030121184600F0D4F875
:101C80004FF47A7005F084FFFB8C4FF4B05202FBE6
:101C900003F303F5B063174A1344BA7F114618469D
:101CA000FFF7DAFDBB7F99B24FF47A730122104837
:101CB00007F094FB0346BB7454E03F23FB7307F12A
:101CC00008030121184600F0AFF84FF47A7005F0D0
:101CD0005FFFFB8C4FF4B05202FB03F303F5DC63B0
:101CE000044A13447A7F11461846FFF7B5FD39E0E0
:101CF0001C090020A80C00207F23FB7307F10803B8
:101D00000121184600F090F84FF47A7005F040FF7A
:101D1000FB8C4FF4B05202FB03F303F504631E4A3D
:101D200013443A7F11461846FFF796FD1AE0FF2349
:101D3000FB7307F108030121184600F075F84FF412
:101D40007A7005F025FFFB8C4FF4B05202FB03F3D1
:101D500003F51A63104A1344FA7E11461846FFF73A
:101D60007BFD00BFBB8C0133BB84FB8C07F12802D9
:101D7000134413F8243C9BB2BA8C9A42FFF4C9AEC8
:101D8000FB8C0133FB84FB8C002B3FF442AE00BF85
:101D90002837BD4680BD00BFA80C002080B485B0A8
:101DA00000AFF860B9601346FB80FB68BA681A6040
:101DB000FB885B009AB2FB689A8000BF1437BD466F
:101DC0005DF8047B704780B588B004AFF8600B46BF
:101DD0007A607B81FB681868FB6899887A890A2396
:101DE0000293012301937B680093012307F0FCF920
:101DF000034618461037BD4680BD80B584B000AF9D
:101E000078600B46FB701346BB70BB783B73FB7866
:101E10009BB207F10C0219467868FFF7D4FF03461E
:101E200018461037BD4680BD80B584B000AF7860DD
:101E30000B46FB70FB787A6813449B793B73FB7805
:101E400043F01203DBB29BB207F10C02194678682B
:101E5000FFF7B9FF034618461037BD4680BD0000A6
:101E600080B483B000AF00237B60104B5B6C0F4AE3
:101E700043F4804353640D4B5B6C03F480437B60FD
:101E80007B6800233B60094B1B6C084A43F080537E
:101E90001364064B1B6C03F080533B603B6800BF30
:101EA0000C37BD465DF8047B704700BF0038024028
:101EB00080B58AB000AF786007F1140300221A6081
:101EC0005A609A60DA601A617B681B68194A93420B
:101ED0002CD100233B61184B1B6B174A43F00203C4
:101EE0001363154B1B6B03F002033B613B694FF41B
:101EF000C0737B611223BB610123FB6103233B623F
:101F000004237B6207F1140319460C4806F074FBA6
:101F10000023FB60084B1B6C074A43F40013136457
:101F2000054B1B6C03F40013FB60FB6800BF2837F4
:101F3000BD4680BD0054004000380240000402400D
:101F400080B58CB000AF786007F11C0300221A60E6
:101F50005A609A60DA601A617B681B68694A93422A
:101F600064D10023BB61684B1B6C674A43F40033A8
:101F70001364654B1B6C03F40033BB61BB69002326
:101F80007B61614B1B6B604A43F0010313635E4B43
:101F90001B6B03F001037B617B690F23FB61022351
:101FA0003B6200237B620323BB620723FB6207F1D2
:101FB0001C031946554806F01FFB554B554A1A603D
:101FC000534B4FF000625A60514B00229A60504BC5
:101FD0000022DA604E4B4FF480621A614C4B0022B3
:101FE0005A614B4B00229A61494B4FF48072DA617F
:101FF000474B4FF400321A62454B00225A62444864
:1020000005F0FAFE0346002B01D0FFF773FC7B6856
:102010003F4A5A633E4A7B68936300220021262090
:1020200005F0B3FE262005F0CCFE67E07B681B6858
:10203000394A934262D100233B61334B5B6C324A95
:1020400043F020035364304B5B6C03F020033B618F
:102050003B690023FB602C4B1B6B2B4A43F00403B2
:102060001363294B1B6B03F00403FB60FB68C02365
:10207000FB6102233B6200237B620323BB620823D4
:10208000FB6207F11C031946244806F0B5FA244BFD
:10209000244A1A60224B4FF020625A60204B0022E3
:1020A0009A601F4B0022DA601D4B4FF480621A6168
:1020B0001B4B00225A611A4B00229A61184B4FF4B5
:1020C0008072DA61164B00221A62154B00225A62A6
:1020D000134805F091FE0346002B01D0FFF70AFCE0
:1020E0007B680F4A5A630E4A7B6893630022002183
:1020F000472005F04AFE472005F063FE00BF303759
:10210000BD4680BD0044004000380240000002404F
:102110007805002088600240001401400008024059
:10212000380700202864024080B400AFFEE780B486
:1021300000AFFEE780B400AFFEE780B400AFFEE77B
:1021400080B400AFFEE780B400AF00BFBD465DF8CD
:10215000047B704780B400AF00BFBD465DF8047BD0
:10216000704780B400AF00BFBD465DF8047B704788
:1021700080B500AF05F0ECFC00BF80BD80B500AFBE
:10218000024805F0D1FF00BF80BD00BF78050020E8
:1021900080B500AF034808F011FC0248FFF74AF889
:1021A00000BF80BD2430002080B500AF024805F09C
:1021B000BBFF00BF80BD00BF3807002080B500AF67
:1021C000034808F0FBFB0248FFF734F800BF80BD6E
:1021D000F82C002080B586B000AFF860B9607A6056
:1021E00000237B610AE0AFF300800146BB685A1C04
:1021F000BA60CAB21A707B6901337B617A697B6805
:102200009A42F0DB7B6818461837BD4680BD80B522
:1022100086B000AFF860B9607A6000237B6109E0A6
:10222000BB685A1CBA601B781846FEF7C1F97B6977
:1022300001337B617A697B689A42F1DB7B681846DF
:102240001837BD4680BD000080B584B000AF78600F
:10225000114B1B68002B02D10F4B104A1A600E4B1A
:102260001B68FB600C4B1A687B6813446A469342F8
:1022700007D909F06BFA02460C2313604FF0FF33C5
:1022800006E0054B1A687B681344034A1360FB6839
:1022900018461037BD4680BD6C050020583500201B
:1022A00080B483B000AF78604FF0FF3318460C372E
:1022B000BD465DF8047B704780B483B000AF7860A2
:1022C00039603B684FF400525A60002318460C37BF
:1022D000BD465DF8047B704780B483B000AF786082
:1022E000012318460C37BD465DF8047B704780B467
:1022F00085B000AFF860B9607A60002318461437E3
:10230000BD465DF8047B704780B400AF084BD3F83E
:102310008830074A43F47003C2F88830044B4FF00A
:1023200000629A6000BFBD465DF8047B704700BF45
:1023300000ED00E080B586B000AF78600023FB754B
:1023400097F91730002B04D1786804F027FE034674
:10235000FB7597F91730002B09D107F10D0207F132
:102360000E031946786804F054F90346FB7597F993
:102370001730002B09D107F10F0207F1100319469E
:10238000786804F05CF90346FB7597F91730184636
:102390001837BD4680BD80B58AB000AF786039601F
:1023A00000237B6200220121786805F06FFA7862D1
:1023B0007B6A002B07D107F108031A4601217868D0
:1023C00005F00CFB786297F82030002B04D13B8A93
:1023D0001A463B681A6005E03B6800221A606FF0FD
:1023E00005037B620121786805F02AFB7B6A1846A9
:1023F0002837BD4680BD80B584B000AF78603960B5
:102400003B68DBB21946786804F02EF90346FB609E
:10241000FB68002B07D13B68DA0F13445B10DAB27C
:102420007B6883F85C21FB6818461037BD4680BD89
:1024300080B586B000AF78600023FB750022832151
:10244000786805F00EF803461A46FB7D1343FB75CA
:1024500097F91730002B1ED100233B6107F10F03C2
:102460001A468321786805F035F80346FB75FB7B37
:10247000002B0AD197F91730002B06D13B690133A5
:102480003B613B69B3F5FA6FE8D33B69B3F5FA6F8B
:1024900001D3F923FB7501228321786804F0E1FF61
:1024A00003461A46FB7D1343FB7597F91730184610
:1024B0001837BD4680BD80B598B000AF78600B4638
:1024C000FB70002387F85F30002387F85E3000231D
:1024D00087F85D300023BB6200237B620023BB646E
:1024E0000023A7F85A304FF4C8537B6400237B6560
:1024F00000233B6500233B647B6893F8F03087F84A
:102500003F3097F83F30072B00F0088401228021EC
:10251000786804F0A6FF03461A4697F85F30134325
:1025200087F85F300122FF21786804F09AFF0346A4
:102530001A4697F85F30134387F85F300022002176
:10254000786804F08EFF03461A4697F85F3013430D
:1025500087F85F300622FF21786804F082FF034687
:102560001A4697F85F30134387F85F3007F1370357
:102570001A468321786804F0ADFF03461A4697F89F
:102580005F30134387F85F3097F8373043F0040328
:10259000DBB21A468321786804F063FF03461A46CB
:1025A00097F85F30134387F85F300722FF21786880
:1025B00004F057FF03461A4697F85F30134387F835
:1025C0005F3001228121786804F04BFF03461A46F0
:1025D00097F85F30134387F85F30786801F02FFF7A
:1025E00003461A4697F85F30134387F85F3001229D
:1025F0008021786804F035FF03461A4697F85F306B
:10260000134387F85F30FB7803F00103002B00F0E1
:10261000988097F83F3003F00103002B40F0918041
:102620006B229421786804F01CFF03461A4697F841
:102630005F30134387F85F307868FFF7F9FE034691
:102640001A4697F85F30134387F85F3007F130037D
:102650001A469021786804F082FF03461A4697F8DC
:102660005F30134387F85F303B6B1B0ADBB203F02C
:102670007F0387F85E303B6BDB0BDBB203F00103BB
:1026800087F85D3024229421786804F0EAFE03463E
:102690001A4697F85F30134387F85F307868FFF782
:1026A000C7FE03461A4697F85F30134387F85F303A
:1026B00007F130031A469021786804F050FF034672
:1026C0001A4697F85F30134387F85F303B6B1B0E59
:1026D000DBB23B723B6B1B0CDBB27B723B6B1B0AAE
:1026E000DBB2BB723B6BDBB2FB72252294217868B4
:1026F00004F0B7FE03461A4697F85F30134387F895
:102700005F307868FFF794FE03461A4697F85F300B
:10271000134387F85F3007F130031A469021786839
:1027200004F01DFF03461A4697F85F30134387F8FD
:102730005F303B6B1B0EDBB23B733B6B1B0CDBB2A6
:102740007B73FB7803F00203002B00F0898197F87C
:102750003F3003F00203002B40F0828102229421DB
:10276000786804F07EFE03461A4697F85F301343FC
:1027700087F85F307868FFF75BFE03461A4697F8E4
:102780005F30134387F85F3007F12F031A4690211B
:10279000786804F09FFE03461A4697F85F301343AB
:1027A00087F85F307B229421786804F05AFE034654
:1027B0001A4697F85F30134387F85F307868FFF761
:1027C00037FE03461A4697F85F30134387F85F30A9
:1027D00007F12E031A469021786804F07BFE034629
:1027E0001A4697F85F30134387F85F3077229421B9
:1027F000786804F036FE03461A4697F85F301343B4
:1028000087F85F307868FFF713FE03461A4697F89B
:102810005F30134387F85F3007F130031A46902189
:10282000786804F09CFE03461A4697F85F3013431D
:1028300087F85F303B6B5B0EDBB203F07F03DBB2EC
:102840003B743B6B9B0CDBB203F07F03DBB27B740E
:102850003B6BDB0ADBB203F07F03DBB2BB743B6B89
:102860001B09DBB203F07F03DBB2FB743B6BDBB213
:10287000DB00DBB203F07803DBB287F83730782275
:102880009421786804F0EDFD03461A4697F85F300E
:10289000134387F85F307868FFF7CAFD03461A468E
:1028A00097F85F30134387F85F3007F130031A461B
:1028B0009021786804F053FE03461A4697F85F307B
:1028C000134387F85F303B6B5B0FDBB203F07F0392
:1028D000DAB297F837301344DBB23B753B6B9B0D94
:1028E000DBB203F07F03DBB27B753B6BDB0BDBB250
:1028F00003F07F03DBB2BB753B6B1B0ADBB203F05B
:102900007F03DBB2FB753B6B5B08DBB203F07F033D
:10291000DBB23B763B6BDBB29B01DBB203F04003E7
:10292000DBB287F8373079229421786804F099FD7A
:1029300003461A4697F85F30134387F85F3078688C
:10294000FFF776FD03461A4697F85F30134387F882
:102950005F3007F130031A469021786804F0FFFDDC
:1029600003461A4697F85F30134387F85F303B6B96
:102970009B0EDBB203F07F03DAB297F837301344D3
:10298000DBB27B763B6BDB0CDBB203F07F03DBB2AD
:10299000BB763B6B1B0BDBB203F07F03DBB2FB763A
:1029A0003B6B5B09DBB203F07F03DBB23B773B6B36
:1029B000DBB29B00DBB203F07C03DBB287F837307D
:1029C0007A229421786804F04CFD03461A4697F861
:1029D0005F30134387F85F307868FFF729FD0346BF
:1029E0001A4697F85F30134387F85F3007F13003DA
:1029F0001A469021786804F0B2FD03461A4697F80B
:102A00005F30134387F85F303B6B9B0FDBB203F003
:102A10007F03DAB297F837301344DBB27B773B6B36
:102A2000DB0DDBB203F07F03DBB2BB773B6B1B0C30
:102A3000DBB203F07F03DBB2FB773B6B5B0ADBB2FD
:102A400003F07F03DBB287F820303B6B9B08DBB2DF
:102A500003F07F03DBB287F82130002387F82230B0
:102A6000FB7803F00403002B00F0F18097F83F306F
:102A700003F00403002B40F0EA807B229421786865
:102A800004F0EFFC03461A4697F85F30134387F8CB
:102A90005F307868FFF7CCFC03461A4697F85F3042
:102AA000134387F85F3007F128031A4690217868AE
:102AB00004F055FD03461A4697F85F30134387F834
:102AC0005F307C229421786804F0CBFC03461A46E0
:102AD00097F85F30134387F85F307868FFF7A8FCFA
:102AE00003461A4697F85F30134387F85F3007F1C3
:102AF00024031A469021786804F031FD03461A46F3
:102B000097F85F30134387F85F3073229421786819
:102B100004F0A7FC03461A4697F85F30134387F882
:102B20005F307868FFF784FC03461A4697F85F30F9
:102B3000134387F85F3007F130031A469021786815
:102B400004F00DFD03461A4697F85F30134387F8EB
:102B50005F303B6B1B029BB23B657422942178680B
:102B600004F07FFC03461A4697F85F30134387F85A
:102B70005F307868FFF75CFC03461A4697F85F30D1
:102B8000134387F85F3007F130031A4690217868C5
:102B900004F0E5FC03461A4697F85F30134387F8C4
:102BA0005F303B6B1B0E3A6D13433B6575229421DE
:102BB000786804F056FC03461A4697F85F301343D2
:102BC00087F85F307868FFF733FC03461A4697F8BA
:102BD0005F30134387F85F3007F130031A469021C6
:102BE000786804F0BCFC03461A4697F85F3013433C
:102BF00087F85F303B6B1B029BB27B65762294218A
:102C0000786804F02EFC03461A4697F85F301343A9
:102C100087F85F307868FFF70BFC03461A4697F891
:102C20005F30134387F85F3007F130031A46902175
:102C3000786804F094FC03461A4697F85F30134313
:102C400087F85F303B6B1B0E7A6D13437B65002268
:102C50008121786804F005FC03461A4697F85F3036
:102C6000134387F85F300622FF21786804F0F9FBF0
:102C700003461A4697F85F30134387F85F3007F131
:102C800037031A468321786804F024FC03461A4669
:102C900097F85F30134387F85F3097F8373023F0A9
:102CA0000403DBB21A468321786804F0DAFB03469A
:102CB0001A4697F85F30134387F85F300122FF21EF
:102CC000786804F0CEFB03461A4697F85F3013434A
:102CD00087F85F3001220021786804F0C2FB0346C8
:102CE0001A4697F85F30134387F85F300022FF21C0
:102CF000786804F0B6FB03461A4697F85F30134332
:102D000087F85F3000228021786804F0AAFB034630
:102D10001A4697F85F30134387F85F3097F95F30B2
:102D2000002B40F08F8097F83F30072B00F08A800F
:102D3000FB7803F00103002B24D097F83F3003F019
:102D40000103002B1ED17B6897F85E2083F81321C6
:102D50007B6897F85D2083F814210023FB640EE064
:102D600007F10802FB6C134419787A68FB6C134472
:102D700003F595730A461A70FB6C0133FB64FB6C18
:102D8000052BEDDDFB7803F00203002B18D097F83C
:102D90003F3003F00203002B12D197F82F207B68FD
:102DA00083F8F12097F82E207B6883F8F2207B6867
:102DB000F333BB6307F110031946B86B08F0A0FDAD
:102DC000FB7803F00403002B30D097F83F3003F07A
:102DD0000403002B2AD1BA6A7B68C3F818217A6AE7
:102DE0007B68C3F81C213B6D5B023B647B683A6CDB
:102DF000C3F820210023A7F85A307B6D002B11D097
:102E00007A6D7B6CD31ABB64BB6C4FF47A7202FB95
:102E100003F31B09A7F85A30B7F85A305B429BB24C
:102E2000A7F85A30B7F95A207B68DA6097F83F2044
:102E3000FB781343DBB287F8373097F837207B688D
:102E400083F8F02097F95F3018466037BD4680BDA3
:102E500080B584B000AF786039600023FB7340F226
:102E6000FF73BB814FF480537B8107F108031A463F
:102E70002821786804F04AFB0346FB7397F90F306A
:102E8000002B1ED13B89C3F30B039BB23B813B89D3
:102E90001A46B7F90C309A420BDD3A897B89D31A6E
:102EA0009BB21BB21A46FA2303FB02F23B681A607C
:102EB00007E03B891BB21A46FA2303FB02F23B6888
:102EC0001A6097F90F3018461037BD4680BD80B59F
:102ED00084B000AF786039600023FB73396878688C
:102EE000FFF7B6FF0346FB7397F90F30184610370C
:102EF000BD4680BD80B485B000AF786039600023E6
:102F0000FB737B681A7C3B681A7097F90F30184680
:102F10001437BD465DF8047B704780B584B000AFC0
:102F2000786039600023FB7307F10C031A46F8211F
:102F3000786804F0EBFA0346FB7397F90F30002B27
:102F400008D107F108031A460421786804F007FB4A
:102F50000346FB7397F90F30002B0CD1BB89002B74
:102F600005D0BB68BA89B3FBF2F23B681A603B68D4
:102F70001A687B689A6197F90F3018461037BD467A
:102F800080BD80B586B000AF786039600023FB75E6
:102F900007F10E031A462021786804F0B7FA0346B9
:102FA000FB7597F91730002B18D1FB89002B09D13D
:102FB0007B681B6A3B613B683A691A607B68002248
:102FC0001A770BE0FB89DB003B613B683A691A60CA
:102FD0007B683A691A627B6801221A7797F9173081
:102FE00018461837BD4680BD80B588B000AFF86080
:102FF0000B467A607B810023FB770023BB777B89BC
:10300000052B47D801A252F823F000BF2530000855
:103010003130000857300008633000086F30000876
:103020006F300008FB685B6BBB610023BB7733E04C
:1030300007F116031A464421F86804F067FA0346BC
:10304000FB7797F91F30002B02D1FB8A5B02BB6133
:103050000123BB7720E0FB68DB6BBB610023BB7700
:103060001AE0FB681B6CBB610023BB7714E007F11F
:1030700016031A466421F86804F048FA0346FB7701
:1030800097F91F30002B02D1FB8A5B02BB61002342
:10309000BB7701E0FC23FB7797F91F30002B2AD187
:1030A000BB7F012B24D1BB69002B10D17B89FA682F
:1030B0000C339B0013445B68BB617B68BA691A6080
:1030C0007B89FA681344002283F8282013E07B6888
:1030D000BA691A607B89FA680C339B001344BA6999
:1030E0005A607B89FA681344012283F8282002E0A1
:1030F0007B68BA691A6097F91F3018462037BD46B9
:1031000080BD00BF80B487B000AFF8600B467A6026
:103110007B810023FB757B89052B05D9FC23FB757F
:103120007B6800221A7008E07B89FA68134493F8E0
:103130002830BB757B68BA7D1A7097F9173018462E
:103140001C37BD465DF8047B704780B584B000AF86
:10315000786039600023FB7307F10E031A460121E2
:10316000786804F0B7F90346FB7397F90F30002B2A
:103170000ED1BA7B7B6883F83021BB7B5BB2002B1E
:1031800003DA3B6801221A7002E03B6800221A70E1
:1031900097F90F30002B04D13B681A787B6883F8CD
:1031A0004C2097F90F3018461037BD4680BD0000FF
:1031B00080B487B000AFF8607B600B46FB721346AB
:1031C000BB720023FB757B6800221A70FB7A042B0C
:1031D00036D801A252F823F0ED310008FF31000883
:1031E000113200082332000835320008BB7A1B1167
:1031F000DBB203F00103DAB27B681A7022E0BB7A1B
:10320000DB10DBB203F00103DAB27B681A7019E05D
:10321000BB7A9B10DBB203F00103DAB27B681A7051
:1032200010E0BB7A9B11DBB203F00103DAB27B68DA
:103230001A7007E0BB7ADB09DAB27B681A7001E02A
:10324000FC23FB7597F9173018461C37BD465DF80F
:10325000047B704780B584B000AF7860396000238C
:10326000FB730023BB7307F10E031A460121786834
:1032700004F030F90346FB7397F90F30002B07D1A8
:10328000BA7B3B6800217868FFF792FF0346FB7327
:1032900097F90F30002B08D1BA7B3B68023301212C
:1032A0007868FFF785FF0346FB7397F90F30002B13
:1032B00008D1BA7B3B68013302217868FFF778FFB9
:1032C0000346FB7397F90F30002B08D1BA7B3B689C
:1032D000033303217868FFF76BFF0346FB7397F90D
:1032E0000F30002B08D1BA7B3B6804330421786887
:1032F000FFF75EFF0346FB7397F90F301846103750
:10330000BD4680BD80B485B000AF0346FB7100238D
:10331000FB73FB790133DBB25B00FB73FB7B18466D
:103320001437BD465DF8047B704780B485B000AFAC
:103330000346FB710023FB73FB795B08DBB2013BA7
:10334000FB73FB7B18461437BD465DF8047B704762
:1033500080B58AB000AF78600B46FB701346BB7037
:10336000002387F827300C2387F82630122387F8AC
:103370002530082387F824300E2387F823300023D4
:10338000FB73BB7803F00103DBB2002B03D0FC23FB
:1033900087F8273020E0FB78002B0DD1BA7897F81A
:1033A00026309A4204D3BA7897F825309A4203D946
:1033B000FC2387F827300FE0FB78012B0CD1BA787B
:1033C00097F824309A4204D3BA7897F823309A4277
:1033D00002D9FC2387F8273097F92730002B02D039
:1033E00097F9273039E2FB78002B50D1BB780C2BB2
:1033F00010D118225721786804F033F8034687F873
:10340000273008225621786804F02BF8034687F805
:1034100027307FE1BB780E2B10D1302257217868FE
:1034200004F01FF8034687F82730082256217868F1
:1034300004F017F8034687F827306BE1BB78102BB0
:1034400010D140225721786804F00BF8034687F822
:10345000273008225621786804F003F8034687F8DD
:10346000273057E1BB78122B40F05481502257216E
:10347000786803F0F6FF034687F8273008225621C4
:10348000786803F0EEFF034687F8273042E1FB78C7
:10349000012B40F03F81BB78082B4CD110224821F2
:1034A000786803F0DEFF034687F8273008224721BB
:1034B000786803F0D6FF034687F8273002223221CE
:1034C000786803F0CEFF03461A4697F82730134377
:1034D00087F827300C223021786803F0C2FF0346BA
:1034E0001A4697F82730134387F827300122FF2127
:1034F000786803F0B6FF03461A4697F8273013435F
:1035000087F8273030223021786803F0AAFF03467D
:103510001A4697F82730134387F827300022FF21F7
:10352000786803F09EFF03461A4697F82730134346
:1035300087F82730EEE0BB780A2B4CD128224821AF
:10354000786803F08EFF034687F82730082247216A
:10355000786803F086FF034687F82730032232217C
:10356000786803F07EFF03461A4697F82730134326
:1035700087F8273009223021786803F072FF03466C
:103580001A4697F82730134387F827300122FF2186
:10359000786803F066FF03461A4697F8273013430E
:1035A00087F8273020223021786803F05AFF03463D
:1035B0001A4697F82730134387F827300022FF2157
:1035C000786803F04EFF03461A4697F827301343F6
:1035D00087F827309EE0BB780C2B4CD1382248214D
:1035E000786803F03EFF034687F82730082247211A
:1035F000786803F036FF034687F82730032232212C
:10360000786803F02EFF03461A4697F827301343D5
:1036100087F8273008223021786803F022FF03461C
:103620001A4697F82730134387F827300122FF21E5
:10363000786803F016FF03461A4697F827301343BD
:1036400087F8273020223021786803F00AFF0346EC
:103650001A4697F82730134387F827300022FF21B6
:10366000786803F0FEFE03461A4697F827301343A6
:1036700087F827304EE0BB780E2B4BD148224821EB
:10368000786803F0EEFE034687F8273008224721CA
:10369000786803F0E6FE034687F8273003223221DC
:1036A000786803F0DEFE03461A4697F82730134386
:1036B00087F8273007223021786803F0D2FE0346CE
:1036C0001A4697F82730134387F827300122FF2145
:1036D000786803F0C6FE03461A4697F8273013436E
:1036E00087F8273020223021786803F0BAFE03469D
:1036F0001A4697F82730134387F827300022FF2116
:10370000786803F0AEFE03461A4697F82730134355
:1037100087F8273097F92730002B7FD1BB781846E0
:10372000FFF703FE034687F82230FB78002B02D018
:10373000012B45D06EE007F114031A460321786887
:1037400000F052F9034687F8273097F92730002B0D
:1037500009D107F110031A460221786800F044F9F4
:10376000034687F8273097F92730002B09D197F8BF
:1037700022301A465021786803F073FE034687F81A
:10378000273097F92730002B08D17B691A4603218F
:10379000786803F0F0F8034687F8273097F9273068
:1037A000002B08D13B691A460221786803F0E3F840
:1037B000034687F827307B68BA7883F8E8202EE044
:1037C00007F118031A460421786800F00DF9034642
:1037D00087F8273097F92730002B09D197F8223046
:1037E0001A467021786803F03CFE034687F82730BC
:1037F00097F92730002B08D1BB691A460421786855
:1038000003F0B9F8034687F827307B68BA7883F865
:10381000E02004E0FC2387F8273000E000BF97F9A0
:103820002730002B09D17B685B69FB61F9697868F7
:1038300003F073FA034687F8273097F92730002BF7
:1038400009D107F10F0101230022786800F0B1FFD0
:10385000034687F8273097F9273018462837BD46A2
:1038600080BD80B584B000AF78600B46FB70134616
:10387000BB700023FB73BA78FB7819467868FFF7B2
:1038800067FD0346FB7397F90F3018461037BD46A6
:1038900080BD80B586B000AFF8600B467A60FB72E1
:1038A0000023FB75FB7A002B02D0012B0AD013E01A
:1038B00007F116031A465021F86803F00BFE034681
:1038C000FB750BE007F116031A467021F86803F048
:1038D00001FE0346FB7501E0FC23FB7597F91730E9
:1038E000002B07D1BB7D1846FFF70CFD03461A4697
:1038F0007B681A7097F9173018461837BD4680BD97
:1039000080B586B000AFF8600B467A60FB7200238A
:10391000FB75FB7A7A681946F868FFF7BAFF034629
:10392000FB7597F9173018461837BD4680BD80B42F
:1039300085B000AF0346FB800023FB60FB88DBB251
:10394000FA88120A92B293400133FB60FB68184672
:103950001437BD465DF8047B704790B486B000AF65
:1039600078600B46FB7040F277634FF00004C7E9C4
:1039700004344FF41063FB60FB78FA6802FB03F336
:103980003A6902FB03F3BB60BB6818461837BD46B3
:1039900090BC704780B586B000AF78600B467B80E6
:1039A00013467B7000237B617B7819467868FFF7AC
:1039B000D4FF38613B6903F5FA730A4AA2FB03237B
:1039C0009B09FB607B88FA6802FB03F303F5FA733B
:1039D000044AA2FB03239B097B617B6918461837C5
:1039E000BD4680BDD34D621080B58CB000AFF8608D
:1039F0000B467A60FB72002387F82F30002387F88C
:103A000020300023BB620023FB830023BB84FB7AAE
:103A1000002B05D0FB7A012B02D0FB7A022B28D198
:103A200007F121031A460021F868FFF769FF0346F2
:103A300087F82F3097F92F30002B09D107F1200399
:103A40001A464621F86803F045FD034687F82F30F3
:103A500097F820309BB21846FFF769FF03467B8436
:103A600097F821207B8C1946F868FFF793FFB8621E
:103A700092E0FB7A032B35D107F121031A4600218E
:103A8000F868FFF73DFF034687F82F3097F92F308E
:103A9000002B40F0818007F121031A460021F868CD
:103AA000FFF72EFF034687F82F3097F92F30002BB2
:103AB00009D107F11E031A465121F86803F026FDCB
:103AC000034687F82F30FB8B1846FFF730FF03467D
:103AD000FB8497F82120FB8C1946F868FFF75AFF02
:103AE000B86259E0FB7A042B56D107F1140319464A
:103AF000F868FFF7AFFB0023FB84FB7D002B1DD094
:103B000007F121031A460021F868FFF7F9FE034682
:103B100087F82F3097F92F30002B0FD107F11E03B4
:103B20001A465121F86803F0F1FC034687F82F305C
:103B3000FB8B1846FFF7FBFE0346FB8497F92F30FB
:103B4000002B09D107F121031A460121F868FFF77C
:103B5000D7FE034687F82F3097F92F30002B0FD16F
:103B600007F11C031A467121F86803F0CFFC0346E5
:103B700087F82F30BB8B1846FFF7D9FE0346BB846E
:103B8000BA8CFB8CD31ABB8497F82120BB8C1946C6
:103B9000F868FFF7FFFEB8627B68BA6A1A6097F9A7
:103BA0002F3018463037BD4680BD80B590B000AF8D
:103BB00078603960002387F83F304FF4FA633B6147
:103BC00040F27673BB634FF470737B634FF42573DD
:103BD0003B6340F24E23FB6240F2B223BB624FF4E0
:103BE00025737B6240F226233B620023FB60BA6BA5
:103BF0007B6B1A443B681A6007F118031946786812
:103C0000FFF728FB034687F83F3097F93F30002B3A
:103C100002D097F93F3075E03B7E002B05D17B7ECB
:103C2000002B02D1BB7E002B30D007F110031A46C7
:103C300002217868FFF7D8FE034687F83F3097F9EE
:103C40003F30002B22D13B7E002B07D03B681A6807
:103C50003969FB6A0B441A443B681A60BB7E002B2F
:103C600009D03B681A683969BB6A0B445B001A4487
:103C70003B681A600AE07B7E002B07D03B681A681D
:103C800039693B6B0B441A443B681A6097F93F3023
:103C9000002B14D1FB7E002B11D007F10C031A4628
:103CA00003217868FFF7A0FE034687F83F303B68A2
:103CB0001A68F9687B6A0B441A443B681A6097F9E2
:103CC0003F30002B14D13B7F002B11D007F11403A0
:103CD0001A4604217868FFF787FE034687F83F30CD
:103CE0003B681A6879693B6A0B441A443B681A605E
:103CF00097F93F30002B03D13B681A687B685A6103
:103D000097F93F3018464037BD4680BD80B584B036
:103D100000AF786039600023FB7339687868FFF77B
:103D200044FF0346FB7397F90F3018461037BD4622
:103D300080BD80B584B000AF786039600023FB732C
:103D40003B6819467868FFF7D5F80346FB7397F987
:103D50000F30002B07D13B68083319467868FFF70E
:103D6000DCF80346FB7397F90F30002B02D13B6858
:103D700000221A7397F90F30002B07D13B681033DC
:103D800019467868FFF7FDF80346FB7397F90F3083
:103D9000002B07D13B68143319467868FFF797F872
:103DA0000346FB7397F90F30002B34D10023BB601F
:103DB0002AE097F90F30002B2AD1BB6899B2BB6873
:103DC00008339B003A68134404331A467868FFF7B7
:103DD0000BF903461A46FB7B1343FB7397F90F302D
:103DE000002B17D1BB6899B2BB6818333A681344EB
:103DF0001A467868FFF786F903461A46FB7B134399
:103E0000FB73BB680133BB60BB68052BD1DD02E0EF
:103E100000BF00E000BF97F90F30002B07D13B68CF
:103E20003C3319467868FFF790F90346FB7397F91E
:103E30000F30002B07D13B68043319467868FFF731
:103E400065FF0346FB7397F90F3018461037BD46E0
:103E500080BD000080B586B000AFF8600B467A6088
:103E60007B810023FB757B89FA68134493F8283023
:103E7000BB75BB7D002B07D17B89FA680C339B0097
:103E800013447A685A6040E07B89052B30D801A240
:103E900052F823F0AD3E0008B53E0008CB3E0008C6
:103EA000D33E0008DB3E0008DB3E0008FB687A6872
:103EB0005A631FE07B685B0A9BB21A464421F8688C
:103EC00003F0E7FA0346FB7514E0FB687A68DA63EF
:103ED00010E0FB687A681A640CE07B685B0A9BB2AE
:103EE0001A466421F86803F0D4FA0346FB7501E032
:103EF000FC23FB7597F91730002B06D17B89FA68F4
:103F00000C339B0013447A685A6097F917301846AF
:103F10001837BD4680BD00BFB0B596B000AF786021
:103F2000002387F8573097F95730002B07D100222C
:103F30008821786803F095FA034687F857307B6844
:103F4000002283F8F0207B684FF47A72A3F85221A4
:103F50007B684FF4C872A3F854217B689E4AC3F86B
:103F600058217B689D4AC3F8D4207B6800221A62DE
:103F700007F1100319467868FFF7DBFE034687F860
:103F8000573097F95730002B12D100233B74002390
:103F90007B747B6803F1100407F110050FCD0FC48B
:103FA0000FCD0FC40FCD0FC495E80F0084E80F00AC
:103FB0007B686422A3F834217B684FF46172A3F814
:103FC00036217B684FF4FA72A3F838217B684FF4EE
:103FD0002062A3F83C217B68012283F85021012252
:103FE0008021786803F03DFA03461A4697F8573067
:103FF000134387F857300122FF21786803F031FA24
:1040000003461A4697F85730134387F85730002273
:104010000021786803F025FA03461A4697F85730CE
:10402000134387F8573007F10F031A469121786838
:1040300003F050FA03461A4697F85730134387F8AF
:104040005730FA7B7B6883F83A2101220021786897
:1040500003F007FA03461A4697F85730134387F8D8
:1040600057300022FF21786803F0FBF903461A4617
:1040700097F85730134387F857300022802178682B
:1040800003F0EFF903461A4697F85730134387F8C1
:10409000573000233B6514E097F95730002B14D1BB
:1040A0003B6D9BB201221946786802F0EBFE034695
:1040B0001A4697F85730134387F857303B6D013352
:1040C0003B653B6D052BE7DD00E000BF97F95730FE
:1040D000002B07D100220221786802F0D3FE0346AC
:1040E00087F8573097F95730002B07D1002203216A
:1040F000786802F0C7FE034687F8573097F95730C3
:10410000002B07D100220421786802F0BBFE034691
:1041100087F8573097F95730002B07D10022052137
:10412000786802F0AFFE034687F8573097F95730AA
:10413000002B08D14FF4901200217868FFF78AFE17
:10414000034687F8573097F95730002B08D14FF4C2
:10415000804201217868FFF77DFE034687F85730DB
:1041600097F95730002B08D14FF40C1202217868D0
:10417000FFF770FE034687F8573097F95730002B4A
:1041800007D1002203217868FFF764FE034687F811
:10419000573097F95730002B0FD17B68FF2283F8F7
:1041A0003021FF220121786803F05BF9034687F88C
:1041B00057307B68012283F8322197F95730002B62
:1041C00003D17B68002283F8152197F957301846F0
:1041D0005837BD46B0BD00BF856B0100A470090013
:1041E00080B586B000AFF860B9607A600023FB75D7
:1041F0000221F868FEF75FF90346FB7597F917305F
:10420000002B1CD1FB6893F8F130BB75BB7D002BF4
:1042100007D1BB6800221A707B68403300221A70F5
:104220000DE0FB6893F8F220BB681A70FB68F3336B
:104230003B617B6840333969184607F061FB97F9A9
:10424000173018461837BD4680BD0000B0B584B0A1
:1042500000AF786039600023FB7307F10D033A6803
:1042600019467868FFF7BCFF0346FB7397F90F30D8
:10427000002B3BD17B7B002B08D13B68304A1C468E
:10428000134607CB20606160A26027E07B7B222B76
:104290000BD87B7B202B08D03B682A4A1C46134650
:1042A00007CB20606160A26018E07B7B262B08D8DA
:1042B0003B68254A1C46134607CB20606160A2601C
:1042C0000CE03B68214A1D4614460FCC286069600B
:1042D000AA60EB602068286123792B753B68203346
:1042E0001B491A460B4603CB1060516097F90F30FB
:1042F000002B08D13B6860331A46C021786803F070
:10430000E9F80346FB7397F90F30002B12D107F140
:104310000E031A46C221786803F0DCF80346FB73EB
:104320003B68012283F86120BB7B1B09DAB23B6842
:1043300083F8622097F90F3018461037BD46B0BD9C
:10434000B4CA0008C0CA0008CCCA0008D8CA00080D
:10435000F0CA000880B584B000AF786039600023EF
:10436000FB7339687868FFF771FF0346FB7397F9B1
:104370000F3018461037BD4680BD80B584B000AF01
:10438000786039600023FB7307F10E031A4613218E
:10439000786803F09FF80346FB73BB7B03F00702CA
:1043A0003B681A60BB7B03F01803002B01D0FA2393
:1043B000FB7397F90F3018461037BD4680BD80B5A6
:1043C00084B000AF786039600023FB737B6893F89A
:1043D000DA30BB73BB7B042B12D107F108031946FB
:1043E0007868FFF7CAFF0346FB73BB68042B03D151
:1043F0003B6801221A701CE03B6800221A7018E02A
:1044000007F10D031A461421786803F063F8034698
:10441000FB7397F90F30002B0BD17B7B03F001036B
:10442000002B03D03B6801221A7002E03B68002297
:104430001A7097F90F3018461037BD4680BD80B509
:1044400084B000AF78600023FB73022003F0A0FB70
:1044500097F90F3018461037BD4680BD80B586B03D
:1044600000AF78600023FB750023FB7300233B61E2
:1044700007F10F0319467868FFF7A1FF0346FB75A4
:1044800097F91730002B10D1FB7B012B0FD03B6924
:1044900001333B613B69B3F5FA6F02D3F923FB7536
:1044A00006E07868FFF7CBFFE2E700BF00E000BF5F
:1044B00097F9173018461837BD4680BD80B584B0CF
:1044C00000AF786039600023FB730023BB730122C7
:1044D0000B21786802F0C5FF0346FB7300220B2115
:1044E000786802F0BEFF03461A46FB7B1343FB735A
:1044F00007F10D031A461321786802F0EBFF03461B
:104500001A46FB7B1343FB73BB7B0133BB737B7B83
:1045100003F00703002B06D0BB7B022B03D897F9CF
:104520000F30002BD3D0BB7B022B01D9F423FB73BC
:1045300097F90F3018461037BD4680BD80B584B05E
:1045400000AF78600B46FB700023FB7397F90F30C8
:10455000002B0AD1FB7843F00103DBB21A4600219D
:10456000786802F07EFF0346FB7397F90F30002B4B
:1045700004D17868FFF772FF0346FB7397F90F3099
:10458000002B05D100217868FFF798FF0346FB73E5
:1045900097F90F30002B06D100220021786802F035
:1045A00060FF0346FB7397F90F3018461037BD467E
:1045B00080BD80B584B000AF7860084611461A46C9
:1045C0000346FB700B46BB7013467B700023FB73E6
:1045D0000023BB730122FF21786802F042FF0346EB
:1045E0001A46FB7B1343FB7300220021786802F01C
:1045F00038FF03461A46FB7B1343FB730022FF215F
:10460000786802F02EFF03461A46FB7B1343FB73C8
:10461000FB78002B1ED097F82030002B09D0BA6908
:10462000CB21786802F056FF03461A46FB7B134302
:10463000FB7397F82430002B2AD007F10E031A469B
:10464000EE21786802F046FF03461A46FB7B1343CF
:10465000FB731DE097F82030002B0AD0BB781A4678
:10466000CB21786802F0FDFE03461A46FB7B13431C
:10467000FB7397F82430002B0AD07B788022EE2140
:10468000786802F096FF03461A46FB7B1343FB73E0
:104690000122FF21786802F0E4FE03461A46FB7B04
:1046A0001343FB7301220021786802F0DAFE03460F
:1046B0001A46FB7B1343FB730022FF21786802F04C
:1046C000D0FE03461A46FB7B1343FB73BB7B23F0F0
:1046D0001003DAB2FB691A7097F90F3018461037D9
:1046E000BD4680BD80B58AB004AFF860B9601146A0
:1046F0001A460B46FB711346BB710023FB75002362
:10470000BB7500237B7500233B750023FB74BB79CD
:10471000002B03D0FB6893F83031BB7501220121D7
:10472000F86802F09EFE0346FB7597F91730002BE0
:1047300005D14021F868FFF701FF0346FB7597F9A3
:104740001730002B15D1FB79012B12D1397D7A7DE1
:10475000002303930123029307F113030193BB6822
:1047600000930B460121F868FFF723FF0346FB7512
:1047700002E0BB6800221A7097F91730002B12D1A3
:10478000BB79002B0FD0BB7D1A460121F86802F0DF
:1047900068FE0346FB7597F91730002B03D1FB68C1
:1047A000BA7D83F8302197F9173018461837BD467F
:1047B00080BD80B58AB004AFF860B96011461A4672
:1047C0000B46FB711346BB710023FB750023BB75C1
:1047D00000237B7500233B75BB79002B03D0FB685E
:1047E00093F83031BB7502220121F86802F039FEDE
:1047F0000346FB7597F91730002B05D10021F868A7
:10480000FFF79CFE0346FB7597F91730002B15D177
:10481000FB79012B12D1397D7A7D0123039300238B
:104820000293BB68019307F1130300930B46012128
:10483000F868FFF7BEFE0346FB7502E0BB68002286
:104840001A7097F91730002B12D1BB79002B0FD0BB
:10485000BB7D1A460121F86802F003FE0346FB7592
:1048600097F91730002B03D1FB68BA7D83F830210C
:1048700097F9173018461837BD4680BD80B586B009
:1048800000AFF860B9607A60FB700023FB7500230D
:10489000BB75FB6893F83031BB75FA780023B968B3
:1048A000F868FFF71FFF0346FB7597F91730002BD9
:1048B00007D1FA7800237968F868FFF77AFF034692
:1048C000FB7597F91730002B0FD1BB7D1A460121DC
:1048D000F86802F0C6FD0346FB7597F91730002B08
:1048E00003D1FB68BA7D83F8302197F91730184659
:1048F0001837BD4680BD80B48BB000AFF860B9609A
:104900007A603B600823BB610023BB773B684FF0B4
:10491000FF321A607A68BB69B2FBF3F37B617B6894
:10492000BA69B3FBF2F2B96901FB02F29B1A3B616F
:104930007B697B6230E000233B62FA687B6A134448
:104940001B78FB777A6A7B699A421ED1FA7F3B69B2
:1049500042FA03F3FB773B693B6216E0FB7F03F00F
:104960000103002B0BD00123BB777B6ABA6902FBE2
:1049700003F23B6A13441A463B681A6009E0FB7F66
:104980005B08FB773B6A01333B623A6ABB699A4238
:10499000E4D37B6A01337B627A6ABB689A4202D2B3
:1049A000BB7F002BC7D000BF2C37BD465DF8047B12
:1049B0007047000080B485B000AF78600123FB73BE
:1049C0007B689B09BB60074ABB6852F82330002B09
:1049D00001D10023FB73FB7B18461437BD465DF8FD
:1049E000047B7047B002002080B489B000AFF8604B
:1049F000B9607A600023FB770823BB617A68BB69E2
:104A0000B2FBF3F37B617B68BA69B3FBF2F2B9697D
:104A100001FB02F29B1A3B617A69BB689A4202D39E
:104A2000CE23FB7710E0FA687B6913441B785AB2F7
:104A300001213B6901FA03F35BB2134359B2FA68EF
:104A40007B691344CAB21A7097F91F30184624378D
:104A5000BD465DF8047B704780B584B000AF7860D8
:104A6000396006233A68B021786802F0C2FC034638
:104A7000FB7397F90F3018461037BD4680BD80B5DF
:104A800084B000AF7860396006233A68B021786856
:104A900002F0C8FC0346FB7397F90F301846103735
:104AA000BD4680BD80B58CB000AFF8607A603B60D9
:104AB0000B46FB72002387F82F303B6CFB613B6C8D
:104AC0003B620023BB622BE007F11C033A6AB96B1F
:104AD0007868FFF710FFFB69B3F1FF3F03D1CE23E6
:104AE00087F82F3020E0FB691A46FB6B1344184609
:104AF000FFF760FF03461A46FB7A934203D0CE23AA
:104B000087F82F3010E0FB693B623A6AB96B38686E
:104B1000FFF76AFF3B6A01333B62BB6A0133BB624A
:104B2000BA6A7B6C9A42CFD3BB6C3A6A1A6097F927
:104B30002F30002B06D13968F868FFF78DFF034648
:104B400087F82F3097F92F30002B21D107F114036C
:104B50001946F868FFF793FF034687F82F300023C4
:104B60007B6211E03A687B6A13441A7807F11401FA
:104B70007B6A0B441B789A4203D0CE2387F82F30F0
:104B800006E07B6A01337B627A6ABB6B9A42E9D3A7
:104B900097F92F3018463037BD4680BD80B485B0B8
:104BA00000AF78600B46FB700023FB73FB78152B7E
:104BB00032D801A252F823F0114C0008114C000821
:104BC000194C0008114C0008194C0008194C000839
:104BD000194C0008194C0008194C0008194C000821
:104BE000194C0008194C0008194C0008194C000811
:104BF000194C0008194C0008194C0008194C000801
:104C0000194C0008194C0008114C0008114C000800
:104C10007B68FA781A7401E0F823FB7397F90F3078
:104C200018461437BD465DF8047B704780B586B0E2
:104C300000AFF8607A603B600B46FB720023FB75A7
:104C400007F114031A460E21F86802F05FFC0346D0
:104C5000FB75BB8A5B041A460E4B13407A681360DF
:104C600097F91730002B0FD107F114031A460C21C6
:104C7000F86802F04BFC0346FB75BB8A5B041A46DE
:104C8000044B13403A68136097F9173018461837E9
:104C9000BD4680BD0000FE1F80B588B000AF7860C3
:104CA00039600023FB7700237B61C6E07B693A68AB
:104CB00013441B78FB747B6901337B61FB7CFF2B06
:104CC00040F08D807B693A6813441B787B747B6964
:104CD00001337B617B7C032B7ED801A252F823F049
:104CE000F14C00082B4D0008654D00089F4D000851
:104CF0007B693A6813441B783B747B6901337B61A1
:104D00007B693A6813441B78FB737B6901337B61D1
:104D10003B7C9BB21B029AB2FB7B9BB21344BB81D0
:104D20007B68BA89A3F8342187E07B693A68134429
:104D30001B783B747B6901337B617B693A68134460
:104D40001B78FB737B6901337B613B7C9BB21B024D
:104D50009AB2FB7B9BB21344BB817B68BA89A3F8F0
:104D600036216AE07B693A6813441B783B747B699F
:104D700001337B617B693A6813441B78FB737B6961
:104D800001337B613B7C9BB21B029AB2FB7B9BB2E3
:104D90001344BB817B68BA89A3F838214DE07B6955
:104DA0003A6813441B783B747B6901337B617B69F0
:104DB0003A6813441B78FB737B6901337B613B7C4E
:104DC0009BB21B029AB2FB7B9BB21344BB817B68F4
:104DD000BA89A3F83C2130E0FC23FB772DE0FB7C73
:104DE000042B28D87B693A6813441B78BB747B6911
:104DF00001337B610023BB610FE07B693A68134498
:104E0000197807F10802BB6913440A461A707B69D6
:104E100001337B61BB690133BB61FB7CBA699A4298
:104E2000EBDBFB7C07F10802B97C786802F0E1FA61
:104E30000346FB7701E0FC23FB777B693A68134468
:104E40001B78002B04D097F91F30002B3FF42EAFB6
:104E500097F91F3018462037BD4680BD80B586B013
:104E600000AF78600B46FB700023FB757B6893F8FE
:104E7000DA30BB75BB7D012B05D0BB7D022B02D088
:104E8000BB7D032B47D107F10C0307F11002012171
:104E90007868FFF7CBFE0346FB753B69B3F57F0FE0
:104EA00003D8FB68B3F57F0F35D997F91730002B7E
:104EB00031D1FB78002B06D01A497868FFF7ECFE59
:104EC0000346FB7527E00422FF21786802F0C9FA47
:104ED00003461A46FB7D1343FB7500227021786858
:104EE00002F0BFFA03461A46FB7D1343FB7500220E
:104EF000FF21786802F0B5FA03461A46FB7D13439A
:104F0000FB7500228021786802F0ABFA03461A464E
:104F1000FB7D1343FB7597F9173018461837BD46CC
:104F200080BD00BF0400002080B586B000AF78606F
:104F30000023FB750123FB7307F10E031946786804
:104F4000FDF7D8FF01228021786802F08AFA034633
:104F5000FB750122FF21786802F083FA0346FB7596
:104F600000220021786802F07CFA0346FB757B681A
:104F700093F83A311A469121786802F072FA0346A2
:104F8000FB7501220021786802F06BFA0346FB757D
:104F90000022FF21786802F064FA0346FB750022C4
:104FA0008021786802F05DFA0346FB75BB7B012B1C
:104FB00037D0032B4FD0002B67D101220021786816
:104FC00002F04FFA0346FB75FB7B7B7397F91730B2
:104FD000002B5DD100233B613B69002B08D007F11A
:104FE0000D031A460021786802F074FA0346FB7537
:104FF0003B6901333B617A7BFB7B1340DBB2FA7B7D
:105000009A4207D197F91730002B03D13B69B3F5CA
:10501000FA6FE1D33B69B3F5FA6F39D3F923FB7526
:1050200036E097F91730002B05D101217868FFF79A
:1050300015FF0346FB7502220021786802F011FA81
:105040000346FB7597F91730002B23D17B680422A8
:1050500083F832211EE097F91730002B05D101218A
:105060007868FFF7FBFE0346FB7504220021786891
:1050700002F0F7F90346FB7597F91730002B0BD1B7
:105080007B68042283F8322106E0F823FB7504E0F4
:1050900000BF02E000BF00E000BF97F917301846DC
:1050A0001837BD4680BD80B584B000AF786000235E
:1050B000FB7307F10E0319467868FDF71BFF0346E3
:1050C000FB7397F90F30002B07D1BB7B002B04D16A
:1050D0007868FFF729FF0346FB7397F90F30002B21
:1050E00004D17868FFF7BAF90346FB7397F90F30DC
:1050F000002B06D1BB7B002B03D17B68032283F8F6
:10510000322197F90F3018461037BD4680BD80B464
:1051100085B000AF786039600023FB737B681B7F2C
:10512000BB733B68BA7B1A7097F90F301846143777
:10513000BD465DF8047B704780B588B000AFF8606D
:10514000B9607A600023FB777B6800221A6007F160
:1051500013031946F868FFF7DAFF0346FB7797F960
:105160001F30002B11D1FB7C002B0ED0FB681B6A7B
:10517000BB61BB689B8A1A46BB6902FB03F37B6178
:105180007B6980331A0A7B681A6097F91F301846CA
:105190002037BD4680BD80B586B000AFF860B960ED
:1051A0007A600023FB75BB68DA687B681A6007F1D8
:1051B00010031A46B968F868FFF7BEFF0346FB758F
:1051C00097F91730002B05D17B681A683B691A44A0
:1051D0007B681A6097F9173018461837BD4680BDAE
:1051E00080B588B000AFF860B9601346FB7100234A
:1051F000FB61FB791946F868FEF7AFFBB861BB6944
:1052000003F5FA730A4AA2FB03239B097B61BB687F
:105210004FF47A7202FB03F27B695B081A447B69E4
:10522000B2FBF3F3FB61FB6918462037BD4680BD36
:10523000D34D621080B485B000AF78600023FB606E
:105240004FF08043BB6002E0BB689B08BB60BA685C
:105250007B689A42F8D817E0FA68BB6813447A680A
:105260009A420BD3FA68BB6813447A68D31A7B60FE
:10527000FB685B08BA681344FB6002E0FB685B08EC
:10528000FB60BB689B08BB60BB68002BE4D1FB687C
:1052900018461437BD465DF8047B704780B59AB058
:1052A00000AFF860B9607A603B6012237B654FF411
:1052B00080433B654223FB640623BB6407237B6476
:1052C000002387F84330FB68B3F85431FB63FB6875
:1052D000D3F85831BB63FB6BBA6B02FB03F37B6300
:1052E0007B6B80331B0A7B637B6BFA6B02FB03F3E4
:1052F0007B6300237B667B68002B1BD0BB689B0213
:105300003B637B685B083A6B13447B667A6E7B6811
:10531000B2FBF3F37B667A6E13465B0013447B6645
:105320007B6E7A6E02FB03F37B667B6E03F50043B4
:105330001B0C7B663B683A6F02FB03F3FB62FB6A64
:1053400003F500431B0CFB62FB6AFA6A02FB03F3E2
:10535000FB627B6F03F500431B0CBB62BB6C5A08FE
:10536000BB6A1A44BB6CB2FBF3F3BB62BB6A7A6CD8
:1053700002FB03F3BB62BB6AB3F5803F02D3554B1C
:105380003B6616E0BB6C5A087B6F1A44BB6CB2FBE1
:10539000F3F37B677B6F7A6C02FB03F37B677B6FB6
:1053A00003F500431B0C3B663B6E3A6E02FB03F3B6
:1053B0003B667B6D9B0303F5FA73474AA2FB03230D
:1053C0009B097B627B6A7A6A02FB03F37B62FB6C5C
:1053D000FA6C02FB03F33B623B6A08331B093B6236
:1053E0007A6A3B6AD31A7B627A6A13465B0013447B
:1053F0001B01FB61FB6903F500539B0BFB61FA6A20
:105400003B6E1344BB61BB6F5B08BA691344BB615D
:10541000BA69BB6FB2FBF3F3BB61BB699B03BB61B2
:10542000FB695B08BA691344BB61BA69FB69B2FBEB
:10543000F3F3BB61BB697A6E02FB03F3BB61BB692B
:1054400003F5FA73244AA2FB03239B09BB61BB69E2
:105450001B01BB61BB6903F5FA731F4AA2FB03235F
:105460009B09BB613B6D80331B0A7B617B69002B11
:1054700008D07B695A087B6B1A447B69B2FBF3F353
:10548000BB6501E00023BB65B86DFFF7D3FE386153
:10549000BB69002B08D0BB695A087B6B1A44BB69F7
:1054A000B2FBF3F3FB6501E00023FB65F86DFFF74A
:1054B000C1FEF865FB6F3A691A603A69FB6D9A4262
:1054C00002D9FB6FFA6D1A6097F9433018466837B6
:1054D000BD4680BD0000F0FFD34D621080B5B4B072
:1054E00004AFF860B9607A603B604FF44873C7F866
:1054F00090304FF41673C7F88C304FF4C813C7F8C8
:10550000883041F25C23C7F884309C4BC7F8803068
:105510004FF47043FB674FF07042D7F88C30B2FB0A
:10552000F3F3BB67964B7B674FF400433B674FF445
:105530004813FB6640F27763BB66002387F89F3011
:10554000FB681B6A7B61BB681B694FF47A7202FBC4
:1055500003F31B0C7B66BB68DB683B6607F110033B
:105560001A46B968F868FFF716FE034687F89F30B9
:1055700007F114031A46B968F868FFF7DDFD034622
:1055800087F89F303B694FF47A7202FB03F3FB65A7
:10559000FB6D03F500431B0CFB657B694FF47A72CE
:1055A00002FB03F3C7F8A030D7F8A020FB6E9A42A5
:1055B00002D9FB6EC7F8A03097F99F30002B68D155
:1055C000FB68D3F8DC30C7F8B830FB6893F8E030FC
:1055D00087F85B3097F85B301A46D7F8B810F86850
:1055E000FFF7FEFD7865FB68D3F8E430C7F8B43008
:1055F000FB6893F8E83087F8533097F853301A4631
:10560000D7F8B410F868FFF7EBFDF8640323C7F888
:10561000983097F85B30082B02D10223C7F89830F6
:10562000FA6C7B6D1344D7F8982002FB03F3DB027E
:10563000C7F89430D7F8943003F5FA73514AA2FBB7
:1056400003239B09C7F89430D7F89430BA6E02FB55
:1056500003F3C7F89430D7F8943003F5FA73494A46
:10566000A2FB03239B09C7F894303B6980331B0AD4
:105670003B613A69D7F8943002FB03F3C7F8BC30BA
:10568000D7F8BC3080331B0AC7F8BC303B691B021B
:105690003B6197F99F30002B02D097F99F3061E171
:1056A000FB6D002B0CD17B68D7F880201A60FB685B
:1056B000D7F88020C3F840213B6800221A604FE1F0
:1056C000D7F8BC30002B02D10123C7F8BC30D7F883
:1056D0009030BB647B6E1A04FB6DB2FBF3F3C7F82A
:1056E000B030D7F8B020BB6F9A4202D9BB6FC7F871
:1056F000B030D7F8B030D7F88C2002FB03F3C7F8EE
:10570000B030D7F8BC2013465B0013449B0018460A
:10571000FFF790FD03465B007B64BB681B891A465C
:105720007B6F02FB03F33B64FB6D1A04D7F8A030D8
:105730005B00D31A03F5FA73124AA2FB03239B09F9
:10574000FB63FB6D1B0403F5FA730E4AA2FB0323F4
:105750009B09BB63FB6B1B02FB63FA6BBB6BB2FB6E
:10576000F3F37B637B6B1B027B63BB681B7E002BAD
:105770000AD04FF48033C7F8AC3034E0AE878F02E4
:105780009A990600D34D62103A6CD7F88430B2FB78
:10579000F3F3C7F8AC307B6BC3F58032D7F8AC308D
:1057A00002FB03F3C7F8AC30D7F8AC203B6F1344CF
:1057B0001B0CC7F8AC30D7F8AC3003F58033C7F812
:1057C000AC30D7F8AC305B08C7F8AC30D7F8AC30A9
:1057D000D7F8AC2002FB03F3C7F8AC30D7F8AC30F5
:1057E0009B0BC7F8AC30D7F8AC30BA6C02FB03F3B4
:1057F0003B633B6B03F500431B0C3B633B6B3A6B1A
:1058000002FB03F33B63D7F8B030FB62FB6A03F59E
:1058100000431B0CFB62FB6AFA6A02FB03F3FB62A8
:105820003A6BFB6A1344BB62B86AFFF703FD786208
:105830007B6A1B047B627B6A32334C4AA2FB0323E4
:105840005A097B6CB2FBF3F3C7F8A830D7F8A8303D
:1058500040F6B53202FB03F3C7F8A830D7F8A830FA
:1058600003F59C530833C7F8A830D7F8A830404A4E
:10587000A2FB03235B0BC7F8A830D7F8A820FB6F67
:105880009A4202D9FB6FC7F8A830D7F8B820D7F8EA
:10589000B430134403F5FA73364AA2FB03239B0981
:1058A0003B623B6A5A08D7F888301A443B6AB2FB1D
:1058B000F3F31846FFF7BEFCF861FB691B02FB61BE
:1058C000FB6903F5FA732B4AA2FB03239B09FB61D7
:1058D000D7F8A830D7F8A82002FB03F33B63FB6995
:1058E000FA6902FB03F3FB623A6BFB6A1344184646
:1058F000FFF7A0FCB861BB694FF47A7202FB03F3B7
:10590000C7F8A430FB6D002B09D0D7F8BC30002BB2
:1059100005D0D7F8A420D7F880309A4203D9D7F819
:105920008030C7F8A4307B68D7F8A4201A607B6861
:105930001A68FB68C3F8402139693B680393D7F8BC
:1059400094300293D7F8B0300193BB6C0093D7F832
:10595000AC303A6EF868FFF7A1FC034687F89F3039
:1059600097F99F301846C037BD4680BD1F85EB5163
:105970005917B7D1D34D621080B590B000AFF86021
:105980007A601A460B46FB7213463B81002387F868
:105990003F30002387F83D30002387F83C30002358
:1059A00087F83B30002387F82B30002387F82A3014
:1059B000002387F82930002387F82830002387F850
:1059C00032300023FB8200233B61FB7ADB10DBB229
:1059D00003F00F0387F8323097F83230002B17D0DE
:1059E00097F83230052B13D097F83230072B0FD0B1
:1059F00097F832300C2B0BD097F832300D2B07D0A4
:105A000097F832300E2B03D097F832300F2B03D19A
:105A1000012387F83E3002E0002387F83E3097F9F3
:105A20003F30002B09D107F12B031A460021F868FB
:105A3000FDF768FB034687F83F3097F82B30002BC3
:105A40002ED097F93F30002B2AD107F1100307F130
:105A50002402B96CF868FFF741FD034687F83F3030
:105A600097F93F30002B03D13B699AB2BB6C5A8146
:105A700097F93F30002B13D107F120031A4600217C
:105A8000F868FDF7B1FA034687F83F303B6A002B10
:105A900006D07A6A3B6A9A4202D9012387F83D30E0
:105AA00097F93F30002B09D107F129031A4602214B
:105AB000F868FDF727FB034687F83F3097F8293051
:105AC000002B44D097F93F30002B40D107F11C0345
:105AD0001A460221F868FDF787FA034687F83F3037
