:020000040800F2
:100000000000022055AB0008351F00083B1F000808
:10001000411F0008471F00084D1F00080000000096
:10002000000000000000000000000000531F000856
:10003000611F0008000000006F1F00087D1F0008FE
:10004000A5AB0008A5AB0008A5AB0008A5AB000850
:10005000A5AB0008A5AB0008A5AB0008A5AB000840
:10006000A5AB0008A5AB0008A5AB0008A5AB000830
:10007000A5AB0008A5AB0008A5AB0008A5AB000820
:10008000891F0008A5AB0008A5AB00080000000010
:10009000000000000000000000000000A5AB000808
:1000A000A5AB0008A5AB0008A5AB0008A5AB0008F0
:1000B000A5AB0008A5AB0008A5AB0008A5AB0008E0
:1000C000A5AB0008A5AB0008A5AB0008A5AB0008D0
:1000D000A5AB0008A5AB00089D1F000800000000AC
:1000E000A5AB0008A5AB0008A5AB00080000000008
:1000F000000000000000000000000000A5AB0008A8
:1001000000000000A5AB0008A5AB0008A5AB0008E7
:1001100000000000000000000000000000000000DF
:10012000A5AB0008B51F0008A5AB0008A5AB0008EB
:10013000A5AB000800000000000000000000000067
:10014000000000000000000000000000A5AB000857
:10015000A5AB0008A5AB0008A5AB0008C91F0008A7
:10016000A5AB0008A5AB00080000000000000000DF
:10017000000000000000000000000000000000007F
:1001800000000000A5AB0008000000000000000017
:08019000A5AB0008A5AB0008B7
:1001A00010B5054C237833B9044B13B10448AFF3B1
:1001B00000800123237010BD2C03002000000000EC
:1001C00038BE000808B5034B1BB103490348AFF321
:1001D000008008BD000000003003002038BE000889
:1001E00053B94AB9002908BF00281CBF4FF0FF319E
:1001F0004FF0FF3000F072B9ADF1080C6DE904CE9C
:1002000000F006F8DDF804E0DDE9022304B07047F1
:100210002DE9F047089E04468846002B4BD18A42C0
:10022000154667D9B2FA82F24AB1C2F1200701FA43
:1002300002F320FA07F7954047EA030894404FEA93
:10024000154E230CB8FBFEF71FFA85FC0EFB178832
:1002500043EA084307FB0CF1994209D9EB1807F16F
:10026000FF3080F01B81994240F21881023F2B44FD
:100270005B1AA4B2B3FBFEF00EFB103344EA034456
:1002800000FB0CFCA44509D92C1900F1FF3380F0C8
:100290000781A44540F2048102382C4440EA07401B
:1002A000A4EB0C0400271EB1D4400023C6E9004390
:1002B0003946BDE8F0878B4209D9002E00F0EB806B
:1002C0000027C6E9000138463946BDE8F087B3FA91
:1002D00083F7002F47D18B4202D3824200F2FA808B
:1002E000841A61EB030301209846002EE0D0C6E992
:1002F0000048DDE702B9FFDEB2FA82F2002A40F0E0
:100300008F80491B4FEA154E1FFA85F80127B1FB74
:10031000FEFC230C0EFB1C1143EA014308FB0CF10D
:10032000994207D9EB180CF1FF3002D2994200F242
:10033000CD808446591AA3B2B1FBFEF00EFB101417
:1003400043EA044408FB00F8A04507D92C1900F142
:10035000FF3302D2A04500F2B6801846A4EB080491
:1003600040EA0C409FE7C7F1200CBB4022FA0CFE8C
:100370004EEA030E01FA07F420FA0CF521FA0CF309
:100380004FEA1E482543B3FBF8F92C0C08FB193340
:100390001FFA8EFA44EA034309FB0AF49C4202FA6C
:1003A00007F200FA07F10BD91EEB030309F1FF3046
:1003B00080F087809C4240F28480A9F10209734456
:1003C0001B1BADB2B3FBF8F008FB103345EA034446
:1003D00000FB0AFAA24508D91EEB040400F1FF3322
:1003E0006BD2A24569D90238744440EA0940A0FBA7
:1003F0000289A4EB0A044C45C2464B4654D351D063
:10040000002E69D0B1EB0A0564EB030404FA0CFC7E
:10041000FD40FC404CEA0505C6E90054002747E7CB
:10042000C2F1200320FA03F7954001FA02F021FA05
:1004300003F34FEA154E3843010CB3FBFEF71FFAE6
:1004400085F80EFB173341EA034107FB08F38B42A3
:1004500004FA02F407D9691807F1FF3C2FD28B4246
:100460002DD9023F2944CB1A81B2B3FBFEF00EFB1B
:10047000103341EA034100FB08F38B4207D96918A6
:1004800000F1FF3C17D28B4215D902382944C91A12
:1004900040EA07473BE73746304609E70746E7E6C5
:1004A0001846FBE64145ABD2B8EB020A69EB0E02F7
:1004B00001381346A4E76046E9E7184695E7674622
:1004C000D1E781467CE702382C4447E7ACF1020CC7
:1004D0002B442FE7384608E73746E9E6704700BF68
:1004E00010F8012B11F8013B012A28BF9A42F7D0DE
:1004F000D01A7047034613F8012B002AFBD1181AB3
:1005000001387047000000000000000000000000FB
:1005100001F0FF01102A2BDB10F0070F08D010F8B4
:10052000013B013A8B422DD010F0070F42B3F6D1B8
:10053000F0B441EA012141EA014122F007047FF0D1
:1005400000070023F0E80256083C85EA010586EA28
:10055000010685FA47F5A3FA87F586FA47F6A5FA64
:1005600087F68EB9EED1F0BC01F0FF0102F0070270
:1005700032B110F8013B013A83EA010313B1F8D11B
:100580000020704701387047002D06BF35460338FC
:10059000073815F0010F07D1013015F4807F02BF35
:1005A000013015F4C03F0130F0BC0138704700BF86
:1005B00080B582B000AF7860391D4FF6FF7301221D
:1005C000034809F0B4FA7B6818460837BD4680BD79
:1005D000B4720020B0B5ADF5A96D00AF6B4A6C4B9D
:1005E00014461D460FCD20606160A260E36028685C
:1005F0002061AB88AA79A3821346A375654A664B2E
:1006000003CB10605160654A654B03CB10605160AD
:100610001B881381634A644B03CB106051601B78C5
:100620001372624B624A10681860624B624A10682B
:100630001860624B624A10681860624B624A106828
:100640001860624B624A10681860624B624A106818
:100650001860624B624A10681860624B624A106808
:10066000186006F051FC00F061FB00F085FC00F022
:100670004DFC00F0E7FB00F017FC5C4B1B68DA68F0
:100680005A4B1B6822F01002DA60594B1B68DA687B
:10069000574B1B6822F01002DA6000F0A5FB00F057
:1006A0008DFF092387F8E834524B04221A70514B0E
:1006B00004225A704F4B01229A704E4B0122DA707D
:1006C0004C4B00221A714B4B00225A71494B0022AD
:1006D0009A71484B0022DA71002387F8473533E0DE
:1006E000002387F8463526E097F8473507F5A962D5
:1006F000134413F8603C97F846259A420BD297F8BA
:10070000472597F8463507F5856112010A441344D9
:1007100000221A700AE097F8472597F8463507F542
:10072000856112010A441344FB221A7097F846357A
:10073000013387F8463597F846350F2BD4D997F80B
:100740004735013387F8473597F84735032BC7D925
:10075000002387F845356BE0002387F844355EE0D9
:1007600097F84535234AD35C97F844259A4243D2FB
:1007700097F8452597F84435120113445B0007F5B7
:10078000A9621344002223F8E02C43E0B4090020BE
:1007900050BE00087009002068BE0008F80800205C
:1007A00070BE0008186800207CBE00088C0900207C
:1007B00088BE0008910900208CBE00089609002020
:1007C00090BE00089B09002094BE0008A0090020EC
:1007D00098BE0008A50900209CBE0008AA090020B8
:1007E000A0BE0008AF090020A4BE0008286F0020AA
:1007F000B47200209469002097F8452597F8443595
:10080000120113445B0007F5A96213444FF6FE7210
:1008100023F8E02C97F84435013387F8443597F8EE
:1008200044350F2B9CD997F84535013387F845356A
:1008300097F84535042B8FD9EE2387F81F3577239A
:1008400087F81E35EF2387F81D35EC2387F81C3514
:10085000042387F81B3501224FF40061C24807F0DA
:100860007BFA01224FF48051BF4807F075FA01224C
:100870001021BE4807F070FA01222021BB4807F082
:100880006BFA01224FF40051B74807F065FA0122D4
:100890004FF48041B44807F05FFA01224FF4004161
:1008A000B14807F059FA01221021B14807F054FA73
:1008B00000224021AD4807F04FFA962006F096FB43
:1008C00001224021A94807F047FA322006F08EFBAA
:1008D00097F81F3599B24FF47A730122A54807F0B3
:1008E000ABFF03461A4607F21F431A7097F81C35F0
:1008F00099B24FF47A7301229E4807F09DFF034698
:100900001A4607F21F431A7097F81F3599B24FF431
:100910007A730122974807F08FFF03461A4607F2C1
:100920001F431A70012387F81A3500F0F7FE3623AB
:1009300087F81935302387F81835332387F81735AA
:10094000392387F81635422387F81535452387F86C
:100950001435482387F81335512387F8123554236B
:1009600087F81135572387F81035602387F80F353E
:10097000632387F80E35662387F80D35692387F8DA
:100980000C35712387F80B35752387F80A3500235A
:1009900087F8093507F5836300221A604FF00003DA
:1009A00007F2045213604FF0000307F5A0621360D2
:1009B0004FF0000307F2FC4213604FF0000307F50D
:1009C0009F6213604FF0000307F2F44213606A4B1A
:1009D00007F59E621360B7EE007A07F59E63D3EDCC
:1009E000007A77EE677A07F2EC43C3ED007A0023D2
:1009F000C7F840350023C7F83C354FF0000307F532
:100A0000A76213604FF0000307F2345213604FF0F7
:100A1000000307F5A66213604FF0000307F22C52A3
:100A20001360564B4FF485721A80544BE9225A805A
:100A3000524BA6229A80514B8522DA804F4BCE2210
:100A40001A844E4B67225A844C4B42229A844B4B59
:100A50002122DA8407F583631B6899B23B46D7F8F5
:100A6000402523F8121007F5A063D3ED007AFCEEC1
:100A7000E77A17EE903A99B207F50073D7F8402558
:100A800023F81210052006F0B1FAD7F840350133EB
:100A9000C7F84035D7F84035802B40F04081384BBF
:100AA0001B68DA68364B1B6842F01002DA60C82017
:100AB00006F09CFA002387F82B3539E0002387F8ED
:100AC0002A3528E097F82B2597F82A352B4912016B
:100AD000134431F81330C3F58573002BB8BF5B4264
:100AE000284A82FB03129210DB17D31A9AB2264BC4
:100AF0001A80254B198897F82B2597F82A35C8B204
:100B0000224912010A44134402461A7097F82A3502
:100B1000013387F82A3597F82B351D4AD35C97F8AF
:100B20002A259A42CED397F82B35013387F82B35F7
:100B300097F82B35032BC1D94FF0000307F5A662B8
:100B400013604FF0000307F22C5213604FF00003C4
:100B500007F5A76213604FF0000307F234521360E9
:100B60000023C7F8243543E0000802400004024097
:100B7000000002401C090020CDCC4C3F746F0020C7
:100B8000286F0020310CC330F8040020D867002003
:100B9000946900200000004307F50073D7F824256E
:100BA00033F8123007EE903AF8EEE77A07F5A663CD
:100BB00093ED007A77EE277A07F5A663C3ED007A06
:100BC0003B46D7F8242533F8123007EE903AF8EE7A
:100BD000E77A07F22C5393ED007A77EE277A07F243
:100BE0002C53C3ED007AD7F824350133C7F82435E8
:100BF000D7F824357F2BCFDD07F22C5393ED007A05
:100C00005FED1C6AC7EE267A07F22C53C3ED007A1B
:100C100007F5A66393ED007A5FED226AC7EE267AA8
:100C200007F5A663C3ED007A0023C7F8203562E01C
:100C300007F50073D7F8202533F8123007EE903A05
:100C4000F8EEE77A07F5A66393ED007A37EE677A58
:100C500007F50073D7F8202533F8123007EE903AE5
:100C6000F8EEE77A07F5A663D3ED006A76EEE77A49
:100C700027EE277A5FED396AC7EE267A07F5A76374
:100C800093ED007A77EE277A07F5A763C3ED007A34
:100C90003B46D7F8202533F8123007EE903AF8EEAD
:100CA000E77A07F22C5393ED007A37EE677A3B46EA
:100CB000D7F8202533F8123007EE903AF8EEE77AAD
:100CC00007F22C53D3ED006A76EEE77A27EE277A07
:100CD0005FED506AC7EE267A07F2345393ED007A3F
:100CE00077EE277A07F23453C3ED007AD7F8203530
:100CF0000133C7F82035D7F820357F2B98DDD7F89A
:100D00003C350133C7F83C350023C7F84035064B66
:100D10001B68DA68044B1B6822F01002DA600120BD
:100D200006F064F97DE600BF286F002080B594B01E
:100D300000AF07F1200330220021184609F069FFB7
:100D400007F10C0300221A605A609A60DA601A6197
:100D50000023BB60224B1B6C214A43F08053136479
:100D60001F4B1B6C03F08053BB60BB6800237B6090
:100D70001C4B1B681B4A43F440431360194B1B6810
:100D800003F440437B607B6802233B620123FB62E8
:100D900010233B630023BB6307F12003184608F0D0
:100DA0003DFA0346002B01D000F0B4FC0F23FB609A
:100DB00000233B6100237B610023BB610023FB61B7
:100DC00007F10C030021184608F098FC0346002B9D
:100DD00001D000F09FFC00BF5037BD4680BD00BF72
:100DE000003802400070004080B500AF124B134A3B
:100DF0001A60114B124A5A600F4B00229A600E4B38
:100E00000022DA600C4B4FF480421A610A4B002238
:100E10005A61094B00229A61074B0022DA61064BA6
:100E200000221A62044806F0B1FF0346002B01D0ED
:100E300000F070FC00BF80BD1C0900200054004081
:100E4000A086010080B500AF154B164A1A60144BFE
:100E50004FF4E1325A60124B00229A60104B00228C
:100E6000DA600F4B00221A610D4B0C225A610C4BB9
:100E700000229A610A4B0022DA61094808F00AFE52
:100E80000346002B01D000F045FC054B1B68DA68D7
:100E9000034B1B6842F01002DA6000BF80BD00BF48
:100EA000B47200200044004080B500AF154B164AD4
:100EB0001A60144B4FF461425A60124B00229A6040
:100EC000104B0022DA600F4B00221A610D4B0C22EE
:100ED0005A610C4B00229A610A4B0022DA610948E0
:100EE00008F0D8FD0346002B01D000F013FC054BA1
:100EF0001B68DA68034B1B6842F01002DA6000BF1F
:100F000080BD00BF286F00200014014080B582B072
:100F100000AF00237B60174B1B6B164A43F4001392
:100F20001363144B1B6B03F400137B607B6800237B
:100F30003B60104B1B6B0F4A43F4800313630D4B54
:100F40001B6B03F480033B603B68002200211020F0
:100F500006F049F9102006F062F90022002139203C
:100F600006F041F9392006F05AF900BF0837BD46AE
:100F700080BD00BF0038024080B485B000AF0023C0
:100F8000FB60174B1B6B164A43F001031363144BB2
:100F90001B6B03F00103FB60FB680023BB60104B7D
:100FA0001B6B0F4A43F0040313630D4B1B6B03F0E1
:100FB0000403BB60BB6800237B60094B1B6B084AC2
:100FC00043F002031363064B1B6B03F002037B60C9
:100FD0007B6800BF1437BD465DF8047B704700BFD7
:100FE0000038024080B483B000AF786000BF0C3797
:100FF000BD465DF8047B704780B584B000AF786073
:101000007B681B680E4A934215D10E490E48FFF7C4
:1010100067FA02460D4B1A600023FB8108E0FA894B
:10102000FB890849895C0A4AD154FB890133FB8159
:10103000FB89092BF3D900BF1037BD4680BD00BF27
:10104000001401402C040020A8BE0008F404002075
:10105000F86A0020B0B58EB000AF78607B681B687E
:10106000A64A934240F04C82A54B1B681B6803F0D4
:101070001003102B40F0858200233B61A04B1B68BE
:101080001B683B619E4B1B685B683B613B699C48EE
:1010900008F066FE9B4B1B685B68DAB26FF03703A3
:1010A0009B1ADAB2984B1A70C8220021974809F0AF
:1010B000B0FD0023FB86954B01221A70934B24222E
:1010C0005A70924B4C229A70904B6522DA708F4B7B
:1010D0006E221A718D4B3A225A718C4B30229A71C2
:1010E0008A4B3922DA71894B38221A72874B2422B3
:1010F0005A720A23FB86864A07F1180392E8030016
:10110000186004331970834BBB628248FFF7F2F911
:101110000346FB84FB8E7D4A9C187E48FFF7EAF964
:1011200003461A467B49204609F068FD7948FFF7D7
:10113000E1F903469AB2FB8E1344FB86FB8E734A99
:101140002421D154FB8E0133FB86FB8E6F4A9C1801
:101150007148FFF7CFF903461A466F49204609F058
:101160004DFD6D48FFF7C6F903469AB2FB8E134456
:10117000FB86FB8E654A3921D154FB8E0133FB86F9
:10118000FB8E624A2421D154FB8E0133FB86FB8EF9
:101190005E4A9C186148FFF7ADF903461A465F495D
:1011A000204609F02BFD5D48FFF7A4F903469AB2EB
:1011B000FB8E1344FB86FB8E544A3821D154FB8EA0
:1011C0000133FB86FB8E514A2421D154FB8E01331F
:1011D000FB86FB8E4D4A9C185148FFF78BF903465E
:1011E0001A464F49204609F009FD4D48FFF782F99C
:1011F00003469AB2FB8E1344FB86FB8E434A302192
:10120000D154FB8E0133FB86FB8E404A2421D154FE
:10121000FB8E0133FB86002387F83530A3E0FB8E7D
:101220003A4A9C1897F8352013469B0013443D4AD0
:101230009D1897F8352013469B001344394A1344F0
:101240001846FFF757F903461A462946204609F083
:10125000D5FC97F8352013469B001344314A1344BC
:101260001846FFF747F903469AB2FB8E1344FB86F4
:10127000002387F8343069E097F8352097F8343048
:10128000294912010A4413441B78284AA2FB03236C
:10129000DB08DAB2FB8E3032D1B21C4AD154FB8E5D
:1012A0000133FB8697F8352097F834301E49120138
:1012B0000A4413441A781D4BA3FB0213D9080B46AA
:1012C0009B000B445B00D31ADAB2FB8E3032D1B2F2
:1012D0000E4AD154FB8E0133FB8697F8342097F8E1
:1012E00035301349CB5C013B9A4223D1FB8E074A30
:1012F0002421D154FB8E0133FB8622E000140140EF
:10130000286F00203807002049030020F4720020D5
:10131000B4BE0008B409002070090020F8080020BD
:10132000186800208C090020D8670020CDCCCCCCD8
:1013300094690020FB8E954A2C21D154FB8E0133F9
:10134000FB8697F83430013387F8343097F835301E
:101350008F4AD35C97F834209A428DD397F8353072
:10136000013387F8353097F83530032B7FF657AFC8
:10137000FB8E864A9C1807F118031846FFF7BAF847
:10138000024607F118031946204609F037FC07F119
:1013900018031846FFF7AEF803469AB2FB8E1344C3
:1013A000FB867A48FFF7A6F8034687F82530FB8EC0
:1013B0000533784A82FB03125211DB17D31ADBB2D2
:1013C0003033DAB2714B9A71FB8E0533724A82FB6D
:1013D00003129210DB17D21A6F4B83FB0213991082
:1013E000D317C91A0B469B000B445B00D11ACBB232
:1013F0003033DAB2654BDA71FB8E5A1D664B83FBD4
:1014000002139910D317C91A0B469B000B445B00BB
:10141000D11ACBB23033DAB25C4B1A7200233B6381
:101420000023FB620BE0594AFB6A13441B78DBB2D2
:101430001A463B6B13443B63FB6A0133FB62FB8E32
:10144000FA6A9A42EFDB3B6BDBB23B623B6A514A82
:10145000A2FB03235B09DBB23B753B6A4F4AA2FB4D
:101460000323D9084D4BA3FB0123DA0813469B0045
:1014700013445B00CA1AD3B27B75396A474BA3FB8E
:101480000123DA0813469B0013445B00CA1AD3B247
:10149000BB753A7DFB8E3032D1B23C4AD154FB8EC3
:1014A0000133FB867A7DFB8E3032D1B2374AD1547C
:1014B000FB8E0133FB86BA7DFB8E3032D1B2334ACC
:1014C000D154FB8E0133FB86FB8E304A0D21D15463
:1014D000FB8E0133FB86FB8E2C4A0A21D154FB8EF6
:1014E0000133FB86FB8E01339AB2642327492C48D3
:1014F00008F01DFBC8222B49294808F0B1FB40E049
:101500007B681B68284A93423BD1284B1B681B68A9
:1015100003F01003102B34D10023FB60234B1B6816
:101520001B68FB60214B1B685B68FB60FB681F4806
:1015300008F016FC1E4B1B685B68DAB26FF03703CD
:101540009B1ADAB21B4B1A70104A1B4B10461946F5
:10155000C8231A4609F052FB164B1B789AB24FF477
:1015600000730A490E4808F0E2FA124B1B781A463B
:101570000021064809F04DFBC8220F490B4808F02E
:101580006FFB00BF3837BD46B0BD00BFF47200200E
:10159000946900201F85EB5167666666CDCCCCCC84
:1015A000286F00202C04002000440040B47200206A
:1015B00078050020490300205803002080B586B03C
:1015C00000AF3B1D00221A605A609A60DA601A610F
:1015D00000233B6140237B600123BB600023FB6051
:1015E0003B1D1946214806F035FA4FF400637B6035
:1015F0003B1D19461E4806F02DFA4FF480537B60C0
:101600003B1D19461A4806F025FA10237B603B1D46
:101610001946164806F01EFA20237B603B1D19462A
:10162000124806F017FA4FF400537B603B1D194631
:101630000F4806F00FFA4FF480437B603B1D1946BC
:101640000B4806F007FA4FF400437B603B1D194638
:10165000074806F0FFF910237B603B1D194605483B
:1016600006F0F8F900BF1837BD4680BD00040240FF
:10167000000802400000024080B584B000AF7860EE
:101680000B46FB707B68292283F85C217B68012272
:1016900083F85D217B686422A3F85E21FB781946FC
:1016A000786805F0D9FB0346002B0DD1FB7899B281
:1016B0004FF47A730122084807F0BEF80346FB7323
:1016C000064809F023FB02E0054809F01FFB00BFB4
:1016D0001037BD4680BD00BF1C090020BCBE0008FD
:1016E000D4BE000880B5C2B000AF3B1D18603B46B9
:1016F00019603B463A1D07F108001B68126804494F
:1017000009F00CFB00BF07F58477BD4680BD00BF24
:10171000F0BE000880B400AF72B6FEE780B58CB0B2
:1017200002AFEE2387F8233004233B7104237B713F
:101730000123BB710123FB7100233B7200237B72E9
:101740000023BB720023FB72362387F8223030233C
:1017500087F82130332387F820303923FB77422361
:10176000BB7745237B7748233B775123FB76542374
:10177000BB7657237B7660233B766323FB7566231A
:10178000BB7569237B7571233B757523FB7401233E
:10179000FB700023BB7097F8233099B2FA1C4FF40A
:1017A0007A7300930123D54806F028FC0346BB74E6
:1017B00097F8233099B2BA1C4FF47A73009301233F
:1017C000CE4806F019FD0346BB7407F10803272233
:1017D000CA49184600F0E8F907F108030022002181
:1017E000184600F010FA07F10803002201211846FC
:1017F00000F009FAFF23FB7307F1080301211846E3
:1018000000F018FA0023BB7307F108030021184603
:1018100000F010FA0023FB7307F1080301211846BA
:1018200000F008FA4FF47A7005F0E0FB0023FB8427
:10183000AFE1FB8C072B2BD801A252F823F000BF9D
:1018400061180008671800086D1800087318000870
:10185000791800087F180008851800088B18000800
:101860000123FB7014E00223FB7011E00423FB70E2
:101870000EE00823FB700BE01023FB7008E0202330
:10188000FB7005E04023FB7002E08023FB7000BF8B
:1018900097F8233099B2FA1C4FF47A73009301231E
:1018A000964806F0ABFB0346BB7497F8233099B219
:1018B000BA1C4FF47A7300930123904806F09CFC05
:1018C0000346BB7407F1080327228C49184600F031
:1018D0006BF907F1080300220021184600F093F984
:1018E00007F1080300220121184600F08CF9FF23BC
:1018F000FB7307F108030121184600F09BF99620BD
:1019000005F074FB0023BB7307F1080300211846A0
:1019100000F090F90023FB7307F10803012118463A
:1019200000F088F94FF47A7005F060FB0023BB8467
:1019300021E1BB8C072B00F21B8101A252F823F09E
:1019400061190008AB190008F9190008471A0008C6
:10195000911A0008C71A0008051B00083B1B000865
:101960000123FB7307F108030121184600F062F917
:101970004FF47A7005F03AFBFB8C4FF4B05202FB47
:1019800003F35F4A134497F8222011461846FFF7E5
:1019900073FE97F8223099B24FF47A7301225748B8
:1019A00006F04AFF0346BB74E2E00323FB7307F132
:1019B00008030121184600F03DF94FF47A7005F054
:1019C00015FBFB8C4FF4B05202FB03F303F5B0732D
:1019D0004B4A134497F8212011461846FFF74CFE56
:1019E00097F8213099B24FF47A730122434806F0F8
:1019F00023FF0346BB74BBE00723FB7307F1080317
:101A00000121184600F016F94FF47A7005F0EEFA4D
:101A1000FB8C4FF4B05202FB03F303F53073384AEA
:101A2000134497F8202011461846FFF725FE97F833
:101A3000203099B24FF47A730122304806F0FCFE50
:101A40000346BB7494E00F23FB7307F108030121E5
:101A5000184600F0EFF84FF47A7005F0C7FAFB8CE7
:101A60004FF4B05202FB03F303F58463244A13449A
:101A7000FA7F11461846FFF7FFFDFB7F99B24FF43E
:101A80007A7301221D4806F0D7FE0346BB746FE04F
:101A90001F23FB7307F108030121184600F0CAF861
:101AA0004FF47A7005F0A2FAFB8C4FF4B05202FBAF
:101AB00003F303F5B063124A1344BA7F1146184684
:101AC000FFF7DAFD54E03F23FB7307F10803012120
:101AD000184600F0AFF84FF47A7005F087FAFB8CE7
:101AE0004FF4B05202FB03F303F5DC63044A1344E2
:101AF0007A7F11461846FFF7BFFD39E01C09002028
:101B0000A80C00207F23FB7307F10803012118466E
:101B100000F090F84FF47A7005F068FAFB8C4FF4FF
:101B2000B05202FB03F303F504631E4A13443A7FE9
:101B300011461846FFF7A0FD1AE0FF23FB7307F1DB
:101B400008030121184600F075F84FF47A7005F08B
:101B50004DFAFB8C4FF4B05202FB03F303F51A630A
:101B6000104A1344FA7E11461846FFF785FD00BF60
:101B7000BB8C0133BB84FB8C07F12802134413F8A0
:101B8000243C9BB2BA8C9A42FFF4D3AEFB8C013357
:101B9000FB84FB8C032B7FF64CAE00BF2837BD4681
:101BA00080BD00BFA80C002080B485B000AFF860F5
:101BB000B9601346FB80FB68BA681A60FB885B005B
:101BC0009AB2FB689A8000BF1437BD465DF8047B6B
:101BD000704780B588B004AFF8600B467A607B81AF
:101BE000FB681868FB6899887A890A2302930123A5
:101BF00001937B680093012306F024FD03461846F9
:101C00001037BD4680BD80B584B000AF78600B460C
:101C1000FB701346BB70BB783B73FB789BB207F13C
:101C20000C0219467868FFF7D4FF034618461037B0
:101C3000BD4680BD80B584B000AF78600B46FB70B8
:101C4000FB787A6813449B793B73FB7843F012036B
:101C5000DBB29BB207F10C0219467868FFF7B9FFB7
:101C6000034618461037BD4680BD000080B483B0DF
:101C700000AF00237B60104B5B6C0F4A43F4804342
:101C800053640D4B5B6C03F480437B607B680023E3
:101C90003B60094B1B6C084A43F080531364064BAE
:101CA0001B6C03F080533B603B6800BF0C37BD46A4
:101CB0005DF8047B704700BF0038024080B58AB0F1
:101CC00000AF786007F1140300221A605A609A602E
:101CD000DA601A617B681B68194A93422CD1002391
:101CE0003B61184B1B6B174A43F002031363154B00
:101CF0001B6B03F002033B613B694FF4C0737B61D4
:101D00001223BB610123FB6103233B6204237B623B
:101D100007F1140319460C4805F09CFE0023FB60F4
:101D2000084B1B6C074A43F400131364054B1B6CF0
:101D300003F40013FB60FB6800BF2837BD4680BD7D
:101D400000540040003802400004024080B58CB0CE
:101D500000AF786007F11C0300221A605A609A6095
:101D6000DA601A617B681B68694A934264D1002378
:101D7000BB61684B1B6C674A43F400331364654BCB
:101D80001B6C03F40033BB61BB6900237B61614BB7
:101D90001B6B604A43F0010313635E4B1B6B03F044
:101DA00001037B617B690F23FB6102233B620023FC
:101DB0007B620323BB620723FB6207F11C03194606
:101DC000554805F047FE554B554A1A60534B4FF0A6
:101DD00000625A60514B00229A60504B0022DA6038
:101DE0004E4B4FF480621A614C4B00225A614B4BB0
:101DF00000229A61494B4FF48072DA61474B4FF4ED
:101E000000321A62454B00225A62444805F022FA19
:101E10000346002B01D0FFF77DFC7B683F4A5A63E5
:101E20003E4A7B68936300220021262005F0DBF9FF
:101E3000262005F0F4F967E07B681B68394A934275
:101E400062D100233B61334B5B6C324A43F0200389
:101E50005364304B5B6C03F020033B613B69002310
:101E6000FB602C4B1B6B2B4A43F004031363294B81
:101E70001B6B03F00403FB60FB68C023FB610223C0
:101E80003B6200237B620323BB620823FB6207F1F2
:101E90001C031946244805F0DDFD244B244A1A6032
:101EA000224B4FF020625A60204B00229A601F4B59
:101EB0000022DA601D4B4FF480621A611B4B002236
:101EC0005A611A4B00229A61184B4FF48072DA6102
:101ED000164B00221A62154B00225A62134805F075
:101EE000B9F90346002B01D0FFF714FC7B680F4AB9
:101EF0005A630E4A7B68936300220021472005F055
:101F000072F9472005F08BF900BF3037BD4680BD20
:101F100000440040003802400000024078050020E4
:101F20008860024000140140000802403807002089
:101F30002864024080B400AFFEE780B400AFFEE743
:101F400080B400AFFEE780B400AFFEE780B400AF1E
:101F5000FEE780B400AF00BFBD465DF8047B70476C
:101F600080B400AF00BFBD465DF8047B704780B40D
:101F700000AF00BFBD465DF8047B704780B500AF81
:101F800005F014F800BF80BD80B500AF024805F031
:101F9000F9FA00BF80BD00BF7805002080B500AF12
:101FA000034807F039FF0248FFF754F800BF80BD2F
:101FB000B472002080B500AF024805F0E3FA00BF1C
:101FC00080BD00BF3807002080B500AF034807F090
:101FD00023FF0248FFF73EF800BF80BD286F0020B6
:101FE00080B586B000AFF860B9607A6000237B618D
:101FF0000AE0AFF300800146BB685A1CBA60CAB25F
:102000001A707B6901337B617A697B689A42F0DBE5
:102010007B6818461837BD4680BD80B586B000AFD6
:10202000F860B9607A6000237B6109E0BB685A1CE4
:10203000BA601B781846FEF7BBFA7B6901337B61F7
:102040007A697B689A42F1DB7B6818461837BD468F
:1020500080BD000080B584B000AF7860114B1B6874
:10206000002B02D10F4B104A1A600E4B1B68FB600D
:102070000C4B1A687B6813446A46934207D908F0F0
:1020800093FD02460C2313604FF0FF3306E0054B2F
:102090001A687B681344034A1360FB6818461037BC
:1020A000BD4680BD6C050020E877002080B483B079
:1020B00000AF78604FF0FF3318460C37BD465DF82F
:1020C000047B704780B483B000AF786039603B68B0
:1020D0004FF400525A60002318460C37BD465DF895
:1020E000047B704780B483B000AF7860012318464A
:1020F0000C37BD465DF8047B704780B485B000AFF7
:10210000F860B9607A60002318461437BD465DF860
:10211000047B704780B400AF084BD3F88830074A7F
:1021200043F47003C2F88830044B4FF000629A60A9
:1021300000BFBD465DF8047B704700BF00ED00E0C6
:1021400080B586B000AF78600023FB7597F9173033
:10215000002B04D1786804F043FB0346FB7597F924
:102160001730002B09D107F10D0207F10E031946B4
:10217000786803F070FE0346FB7597F91730002B63
:1021800009D107F10F0207F110031946786803F02F
:1021900078FE0346FB7597F9173018461837BD4689
:1021A00080BD80B584B000AF786039603B68DBB239
:1021B0001946786803F07AFE0346FB60FB68002B43
:1021C00007D13B68DA0F13445B10DAB27B6883F8FF
:1021D0005C21FB6818461037BD4680BD80B586B0CF
:1021E00000AF78600023FB7500228321786804F03B
:1021F000A9FC03461A46FB7D1343FB7597F917307C
:10220000002B1ED100233B6107F10F031A468321E7
:10221000786804F0D0FC0346FB75FB7B002B0AD1E9
:1022200097F91730002B06D13B6901333B613B69BD
:10223000B3F5FA6FE8D33B69B3F5FA6F01D3F9232D
:10224000FB7501228321786804F07CFC03461A4662
:10225000FB7D1343FB7597F9173018461837BD46B9
:1022600080BD80B598B000AF78600B46FB7000234E
:1022700087F85F30002387F85E30002387F85D30F1
:102280000023BB6200237B620023BB640023A7F80A
:102290005A304FF4C8537B6400237B6500233B65B1
:1022A00000233B647B6893F8F03087F83F3097F861
:1022B0003F30072B00F0088401228021786804F069
:1022C00041FC03461A4697F85F30134387F85F30A6
:1022D0000122FF21786804F035FC03461A4697F87E
:1022E0005F30134387F85F3000220021786804F0E4
:1022F00029FC03461A4697F85F30134387F85F308E
:102300000622FF21786804F01DFC03461A4697F860
:102310005F30134387F85F3007F137031A46832194
:10232000786804F048FC03461A4697F85F30134378
:1023300087F85F3097F8373043F00403DBB21A4672
:102340008321786804F0FEFB03461A4697F85F3055
:10235000134387F85F300722FF21786804F0F2FB0F
:1023600003461A4697F85F30134387F85F3001221F
:102370008121786804F0E6FB03461A4697F85F303F
:10238000134387F85F30786801F07BFC03461A46F8
:1023900097F85F30134387F85F3001228021786817
:1023A00004F0D0FB03461A4697F85F30134387F8D2
:1023B0005F30FB7803F00103002B00F0988097F862
:1023C0003F3003F00103002B40F091806B229421F9
:1023D000786804F0B7FB03461A4697F85F3013435A
:1023E00087F85F307868FFF7F9FE03461A4697F8DA
:1023F0005F30134387F85F3007F130031A469021AE
:10240000786804F01DFC03461A4697F85F301343C2
:1024100087F85F303B6B1B0ADBB203F07F0387F862
:102420005E303B6BDB0BDBB203F0010387F85D3002
:1024300024229421786804F085FB03461A4697F815
:102440005F30134387F85F307868FFF7C7FE0346B5
:102450001A4697F85F30134387F85F3007F130036F
:102460001A469021786804F0EBFB03461A4697F869
:102470005F30134387F85F303B6B1B0EDBB23B7260
:102480003B6B1B0CDBB27B723B6B1B0ADBB2BB7280
:102490003B6BDBB2FB7225229421786804F052FB7F
:1024A00003461A4697F85F30134387F85F30786821
:1024B000FFF794FE03461A4697F85F30134387F8F8
:1024C0005F3007F130031A469021786804F0B8FBBA
:1024D00003461A4697F85F30134387F85F303B6B2B
:1024E0001B0EDBB23B733B6B1B0CDBB27B73FB78CD
:1024F00003F00203002B00F0898197F83F3003F0CE
:102500000203002B40F0828102229421786804F0BB
:1025100019FB03461A4697F85F30134387F85F307C
:102520007868FFF75BFE03461A4697F85F3013435F
:1025300087F85F3007F12F031A469021786804F07E
:102540003AFB03461A4697F85F30134387F85F302B
:102550007B229421786804F0F5FA03461A4697F82E
:102560005F30134387F85F307868FFF737FE034624
:102570001A4697F85F30134387F85F3007F12E0350
:102580001A469021786804F016FB03461A4697F81D
:102590005F30134387F85F3077229421786804F026
:1025A000D1FA03461A4697F85F30134387F85F3035
:1025B0007868FFF713FE03461A4697F85F30134317
:1025C00087F85F3007F130031A469021786804F0ED
:1025D00037FB03461A4697F85F30134387F85F309E
:1025E0003B6B5B0EDBB203F07F03DBB23B743B6BF8
:1025F0009B0CDBB203F07F03DBB27B743B6BDB0A2B
:10260000DBB203F07F03DBB2BB743B6B1B09DBB2B5
:1026100003F07F03DBB2FB743B6BDBB2DB00DBB2AE
:1026200003F07803DBB287F837307822942178689A
:1026300004F088FA03461A4697F85F30134387F888
:102640005F307868FFF7CAFD03461A4697F85F3097
:10265000134387F85F3007F130031A4690217868FA
:1026600004F0EEFA03461A4697F85F30134387F8F2
:102670005F303B6B5B0FDBB203F07F03DAB297F89E
:1026800037301344DBB23B753B6B9B0DDBB203F081
:102690007F03DBB27B753B6BDB0BDBB203F07F03AD
:1026A000DBB2BB753B6B1B0ADBB203F07F03DBB213
:1026B000FB753B6B5B08DBB203F07F03DBB23B7661
:1026C0003B6BDBB29B01DBB203F04003DBB287F86C
:1026D000373079229421786804F034FA03461A4698
:1026E00097F85F30134387F85F307868FFF776FD1F
:1026F00003461A4697F85F30134387F85F3007F1B7
:1027000030031A469021786804F09AFA03461A4674
:1027100097F85F30134387F85F303B6B9B0EDBB25B
:1027200003F07F03DAB297F837301344DBB27B76DD
:102730003B6BDB0CDBB203F07F03DBB2BB763B6BA6
:102740001B0BDBB203F07F03DBB2FB763B6B5B0959
:10275000DBB203F07F03DBB23B773B6BDBB29B006A
:10276000DBB203F07C03DBB287F837307A229421A6
:10277000786804F0E7F903461A4697F85F30134388
:1027800087F85F307868FFF729FD03461A4697F807
:102790005F30134387F85F3007F130031A4690210A
:1027A000786804F04DFA03461A4697F85F301343F1
:1027B00087F85F303B6B9B0FDBB203F07F03DAB22D
:1027C00097F837301344DBB27B773B6BDB0DDBB222
:1027D00003F07F03DBB2BB773B6B1B0CDBB203F078
:1027E0007F03DBB2FB773B6B5B0ADBB203F07F035B
:1027F000DBB287F820303B6B9B08DBB203F07F0332
:10280000DBB287F82130002387F82230FB7803F011
:102810000403002B00F0F18097F83F3003F004032D
:10282000002B40F0EA807B229421786804F08AF93A
:1028300003461A4697F85F30134387F85F3078688D
:10284000FFF7CCFC03461A4697F85F30134387F82E
:102850005F3007F128031A469021786804F0F0F9F8
:1028600003461A4697F85F30134387F85F307C229F
:102870009421786804F066F903461A4697F85F30A9
:10288000134387F85F307868FFF7A8FC03461A46C1
:1028900097F85F30134387F85F3007F124031A4637
:1028A0009021786804F0CCF903461A4697F85F3017
:1028B000134387F85F3073229421786804F042F95B
:1028C00003461A4697F85F30134387F85F307868FD
:1028D000FFF784FC03461A4697F85F30134387F8E6
:1028E0005F3007F130031A469021786804F0A8F9A8
:1028F00003461A4697F85F30134387F85F303B6B07
:102900001B029BB23B6574229421786804F01AF98B
:1029100003461A4697F85F30134387F85F307868AC
:10292000FFF75CFC03461A4697F85F30134387F8BD
:102930005F3007F130031A469021786804F080F97F
:1029400003461A4697F85F30134387F85F303B6BB6
:102950001B0E3A6D13433B6575229421786804F091
:10296000F1F803461A4697F85F30134387F85F3053
:102970007868FFF733FC03461A4697F85F30134335
:1029800087F85F3007F130031A469021786804F029
:1029900057F903461A4697F85F30134387F85F30BC
:1029A0003B6B1B029BB27B6576229421786804F016
:1029B000C9F803461A4697F85F30134387F85F302B
:1029C0007868FFF70BFC03461A4697F85F3013430D
:1029D00087F85F3007F130031A469021786804F0D9
:1029E0002FF903461A4697F85F30134387F85F3094
:1029F0003B6B1B0E7A6D13437B6500228121786847
:102A000004F0A0F803461A4697F85F30134387F89E
:102A10005F300622FF21786804F094F803461A46D6
:102A200097F85F30134387F85F3007F137031A4692
:102A30008321786804F0BFF803461A4697F85F30A0
:102A4000134387F85F3097F8373023F00403DBB285
:102A50001A468321786804F075F803461A4697F8F9
:102A60005F30134387F85F300122FF21786804F05C
:102A700069F803461A4697F85F30134387F85F30CA
:102A800001220021786804F05DF803461A4697F8A1
:102A90005F30134387F85F300022FF21786804F02D
:102AA00051F803461A4697F85F30134387F85F30B2
:102AB00000228021786804F045F803461A4697F80A
:102AC0005F30134387F85F3097F95F30002B40F099
:102AD0008F8097F83F30072B00F08A80FB7803F057
:102AE0000103002B24D097F83F3003F00103002BA3
:102AF0001ED17B6897F85E2083F813217B6897F8D6
:102B00005D2083F814210023FB640EE007F1080226
:102B1000FB6C134419787A68FB6C134403F59573C6
:102B20000A461A70FB6C0133FB64FB6C052BEDDD70
:102B3000FB7803F00203002B18D097F83F3003F026
:102B40000203002B12D197F82F207B6883F8F12025
:102B500097F82E207B6883F8F2207B68F333BB6301
:102B600007F110031946B86B08F0F8F8FB7803F08A
:102B70000403002B30D097F83F3003F00403002B00
:102B80002AD1BA6A7B68C3F818217A6A7B68C3F8CD
:102B90001C213B6D5B023B647B683A6CC3F82021CF
:102BA0000023A7F85A307B6D002B11D07A6D7B6C17
:102BB000D31ABB64BB6C4FF47A7202FB03F31B099C
:102BC000A7F85A30B7F85A305B429BB2A7F85A3090
:102BD000B7F95A207B68DA6097F83F20FB781343F7
:102BE000DBB287F8373097F837207B6883F8F0201E
:102BF00097F95F3018466037BD4680BD80B584B018
:102C000000AF786039600023FB7340F2FF73BB8133
:102C10004FF480537B8107F108031A462821786816
:102C200003F0E5FF0346FB7397F90F30002B1ED12D
:102C30003B89C3F30B039BB23B813B891A46B7F92F
:102C40000C309A420BDD3A897B89D31A9BB21BB2B6
:102C50001A46FA2303FB02F23B681A6007E03B893D
:102C60001BB21A46FA2303FB02F23B681A6097F97B
:102C70000F3018461037BD4680BD80B584B000AF18
:102C8000786039600023FB7339687868FFF7B6FF16
:102C90000346FB7397F90F3018461037BD4680BDC9
:102CA00080B485B000AF786039600023FB737B6827
:102CB0001A7C3B681A7097F90F3018461437BD46D6
:102CC0005DF8047B704780B584B000AF78603960F0
:102CD0000023FB7307F10C031A46F821786803F010
:102CE00086FF0346FB7397F90F30002B08D107F1DD
:102CF00008031A460421786803F0A2FF0346FB7319
:102D000097F90F30002B0CD1BB89002B05D0BB6885
:102D1000BA89B3FBF2F23B681A603B681A687B68B9
:102D20009A6197F90F3018461037BD4680BD80B5BF
:102D300086B000AF786039600023FB7507F10E03A1
:102D40001A462021786803F052FF0346FB7597F975
:102D50001730002B18D1FB89002B09D17B681B6A27
:102D60003B613B683A691A607B6800221A770BE086
:102D7000FB89DB003B613B683A691A607B683A6912
:102D80001A627B6801221A7797F9173018461837AC
:102D9000BD4680BD80B588B000AFF8600B467A6054
:102DA0007B810023FB770023BB777B89052B47D8EA
:102DB00001A252F823F000BFD12D0008DD2D00083C
:102DC000032E00080F2E00081B2E00081B2E0008E3
:102DD000FB685B6BBB610023BB7733E007F1160335
:102DE0001A464421F86803F002FF0346FB7797F97F
:102DF0001F30002B02D1FB8A5B02BB610123BB7732
:102E000020E0FB68DB6BBB610023BB771AE0FB684B
:102E10001B6CBB610023BB7714E007F116031A4655
:102E20006421F86803F0E3FE0346FB7797F91F304F
:102E3000002B02D1FB8A5B02BB610023BB7701E060
:102E4000FC23FB7797F91F30002B2AD1BB7F012B86
:102E500024D1BB69002B10D17B89FA680C339B000D
:102E600013445B68BB617B68BA691A607B89FA6846
:102E70001344002283F8282013E07B68BA691A60A3
:102E80007B89FA680C339B001344BA695A607B89CA
:102E9000FA681344012283F8282002E07B68BA69AB
:102EA0001A6097F91F3018462037BD4680BD00BF15
:102EB00080B487B000AFF8600B467A607B81002356
:102EC000FB757B89052B05D9FC23FB757B680022EC
:102ED0001A7008E07B89FA68134493F82830BB75B0
:102EE0007B68BA7D1A7097F9173018461C37BD46B3
:102EF0005DF8047B704780B584B000AF78603960BE
:102F00000023FB7307F10E031A460121786803F0D2
:102F100052FE0346FB7397F90F30002B0ED1BA7B9C
:102F20007B6883F83021BB7B5BB2002B03DA3B6804
:102F300001221A7002E03B6800221A7097F90F30E4
:102F4000002B04D13B681A787B6883F84C2097F9F2
:102F50000F3018461037BD4680BD000080B487B0E2
:102F600000AFF8607B600B46FB721346BB72002318
:102F7000FB757B6800221A70FB7A042B36D801A2FD
:102F800052F823F0992F0008AB2F0008BD2F00083E
:102F9000CF2F0008E12F0008BB7A1B11DBB203F032
:102FA0000103DAB27B681A7022E0BB7ADB10DBB275
:102FB00003F00103DAB27B681A7019E0BB7A9B1048
:102FC000DBB203F00103DAB27B681A7010E0BB7A5F
:102FD0009B11DBB203F00103DAB27B681A7007E0E1
:102FE000BB7ADB09DAB27B681A7001E0FC23FB755F
:102FF00097F9173018461C37BD465DF8047B7047BB
:1030000080B584B000AF786039600023FB73002383
:10301000BB7307F10E031A460121786803F0CBFD5C
:103020000346FB7397F90F30002B07D1BA7B3B683F
:1030300000217868FFF792FF0346FB7397F90F3082
:10304000002B08D1BA7B3B68023301217868FFF777
:1030500085FF0346FB7397F90F30002B08D1BA7B2D
:103060003B68013302217868FFF778FF0346FB7362
:1030700097F90F30002B08D1BA7B3B68033303214B
:103080007868FFF76BFF0346FB7397F90F30002B4F
:1030900008D1BA7B3B68043304217868FFF75EFFF0
:1030A0000346FB7397F90F3018461037BD4680BDB5
:1030B00080B485B000AF0346FB710023FB73FB793E
:1030C0000133DBB25B00FB73FB7B18461437BD4654
:1030D0005DF8047B704780B586B000AFF8600B46A2
:1030E0007A60FB720023FB75FB7A002B02D0012B68
:1030F0000AD013E007F116031A465021F86803F0CE
:103100005AFD0346FB750BE007F116031A467021C2
:10311000F86803F050FD0346FB7501E0FC23FB75E6
:1031200097F91730002B07D1BB7D1846FFF7C0FF7A
:1031300003461A467B681A7097F9173018461837F5
:10314000BD4680BD80B586B000AFF8600B467A60A2
:10315000FB720023FB75FB7A7A681946F868FFF763
:10316000BAFF0346FB7597F9173018461837BD4666
:1031700080BD80B485B000AF0346FB800023FB60B8
:10318000FB88DBB2FA88120A92B293400133FB60EB
:10319000FB6818461437BD465DF8047B704790B451
:1031A00086B000AF78600B46FB7040F277634FF05B
:1031B0000004C7E904344FF41063FB60FB78FA683D
:1031C00002FB03F33A6902FB03F3BB60BB681846DA
:1031D0001837BD4690BC704780B586B000AF7860A8
:1031E0000B467B8013467B7000237B617B781946FE
:1031F0007868FFF7D4FF38613B6903F5FA730A4A30
:10320000A2FB03239B09FB607B88FA6802FB03F3A4
:1032100003F5FA73044AA2FB03239B097B617B69D4
:1032200018461837BD4680BDD34D621080B58CB0AE
:1032300000AFF8600B467A60FB72002387F82F30EE
:10324000002387F820300023BB620023FB83002388
:10325000BB84FB7A002B05D0FB7A012B02D0FB7AD2
:10326000022B28D107F121031A460021F868FFF745
:1032700069FF034687F82F3097F92F30002B09D1CB
:1032800007F120031A464621F86803F094FC034630
:1032900087F82F3097F820309BB21846FFF769FF68
:1032A00003467B8497F821207B8C1946F868FFF74A
:1032B00093FFB86292E0FB7A032B35D107F121032B
:1032C0001A460021F868FFF73DFF034687F82F30C4
:1032D00097F92F30002B40F0818007F121031A4627
:1032E0000021F868FFF72EFF034687F82F3097F983
:1032F0002F30002B09D107F11E031A465121F8681F
:1033000003F075FC034687F82F30FB8B1846FFF758
:1033100030FF0346FB8497F82120FB8C1946F868A0
:10332000FFF75AFFB86259E0FB7A042B56D107F138
:1033300014031946F868FFF763FE0023FB84FB7D46
:10334000002B1DD007F121031A460021F868FFF772
:10335000F9FE034687F82F3097F92F30002B0FD155
:1033600007F11E031A465121F86803F040FC03469A
:1033700087F82F30FB8B1846FFF7FBFE0346FB84D4
:1033800097F92F30002B09D107F121031A460121AB
:10339000F868FFF7D7FE034687F82F3097F92F30EC
:1033A000002B0FD107F11C031A467121F86803F0B6
:1033B0001EFC034687F82F30BB8B1846FFF7D9FE5B
:1033C0000346BB84BA8CFB8CD31ABB8497F82120AC
:1033D000BB8C1946F868FFF7FFFEB8627B68BA6AD3
:1033E0001A6097F92F3018463037BD4680BD80B53A
:1033F00090B000AF78603960002387F83F304FF419
:10340000FA633B6140F27673BB634FF470737B6386
:103410004FF425733B6340F24E23FB6240F2B2232C
:10342000BB624FF425737B6240F226233B6200238C
:10343000FB60BA6B7B6B1A443B681A6007F1180398
:1034400019467868FFF7DCFD034687F83F3097F9A7
:103450003F30002B02D097F93F3075E03B7E002BC8
:1034600005D17B7E002B02D1BB7E002B30D007F133
:1034700010031A4602217868FFF7D8FE034687F842
:103480003F3097F93F30002B22D13B7E002B07D0F5
:103490003B681A683969FB6A0B441A443B681A6036
:1034A000BB7E002B09D03B681A683969BB6A0B44A4
:1034B0005B001A443B681A600AE07B7E002B07D051
:1034C0003B681A6839693B6B0B441A443B681A60C5
:1034D00097F93F30002B14D1FB7E002B11D007F160
:1034E0000C031A4603217868FFF7A0FE034687F80D
:1034F0003F303B681A68F9687B6A0B441A443B68A2
:103500001A6097F93F30002B14D13B7F002B11D06C
:1035100007F114031A4604217868FFF787FE034673
:1035200087F83F303B681A6879693B6A0B441A4454
:103530003B681A6097F93F30002B03D13B681A684B
:103540007B685A6197F93F3018464037BD4680BDC9
:1035500080B584B000AF786039600023FB733968B0
:103560007868FFF744FF0346FB7397F90F3018465E
:103570001037BD4680BD80B584B000AF786039603B
:103580000023FB733B6819467868FFF789FB034605
:10359000FB7397F90F30002B07D13B6808331946AE
:1035A0007868FFF790FB0346FB7397F90F30002B09
:1035B00002D13B6800221A7397F90F30002B07D114
:1035C0003B68103319467868FFF7B1FB0346FB737D
:1035D00097F90F30002B07D13B68143319467868F0
:1035E000FFF74BFB0346FB7397F90F30002B34D1E9
:1035F0000023BB602AE097F90F30002B2AD1BB686B
:1036000099B2BB6808339B003A68134404331A46E6
:103610007868FFF7BFFB03461A46FB7B1343FB7337
:1036200097F90F30002B17D1BB6899B2BB681833DC
:103630003A6813441A467868FFF73AFC03461A467C
:10364000FB7B1343FB73BB680133BB60BB68052B7B
:10365000D1DD02E000BF00E000BF97F90F30002B82
:1036600007D13B683C3319467868FFF744FC0346B2
:10367000FB7397F90F30002B07D13B6804331946D1
:103680007868FFF765FF0346FB7397F90F3018461C
:103690001037BD4680BD000080B586B000AFF86031
:1036A0000B467A607B810023FB757B89FA681344A3
:1036B00093F82830BB75BB7D002B07D17B89FA6856
:1036C0000C339B0013447A685A6040E07B89052BD9
:1036D00030D801A252F823F0F1360008F93600087C
:1036E0000F370008173700081F3700081F3700087A
:1036F000FB687A685A631FE07B685B0A9BB21A46D4
:103700004421F86803F036FA0346FB7514E0FB68C1
:103710007A68DA6310E0FB687A681A640CE07B6808
:103720005B0A9BB21A466421F86803F023FA034649
:10373000FB7501E0FC23FB7597F91730002B06D1D0
:103740007B89FA680C339B0013447A685A6097F9B6
:10375000173018461837BD4680BD00BFB0B596B0CB
:1037600000AF7860002387F8573097F95730002B67
:1037700007D100228821786803F0E4F9034687F82E
:1037800057307B68002283F8F0207B684FF47A7210
:10379000A3F852217B684FF4C872A3F854217B68C8
:1037A0009E4AC3F858217B689D4AC3F8D4207B68A1
:1037B00000221A6207F1100319467868FFF7DBFE52
:1037C000034687F8573097F95730002B12D1002362
:1037D0003B7400237B747B6803F1100407F1100530
:1037E0000FCD0FC40FCD0FC40FCD0FC495E80F0040
:1037F00084E80F007B686422A3F834217B684FF4CF
:103800006172A3F836217B684FF4FA72A3F838216D
:103810007B684FF42062A3F83C217B68012283F887
:10382000502101228021786803F08CF903461A4662
:1038300097F85730134387F857300122FF217868F3
:1038400003F080F903461A4697F85730134387F878
:10385000573000220021786803F074F903461A46B5
:1038600097F85730134387F8573007F10F031A467C
:103870009121786803F09FF903461A4697F857306C
:10388000134387F85730FA7B7B6883F83A2101228B
:103890000021786803F056F903461A4697F8573026
:1038A000134387F857300022FF21786803F04AF964
:1038B00003461A4697F85730134387F857300022CB
:1038C0008021786803F03EF903461A4697F857308E
:1038D000134387F8573000233B6514E097F95730BE
:1038E000002B14D13B6D9BB201221946786802F07F
:1038F000EBFE03461A4697F85730134387F85730C4
:103900003B6D01333B653B6D052BE7DD00E000BF00
:1039100097F95730002B07D100220221786802F076
:10392000D3FE034687F8573097F95730002B07D15D
:1039300000220321786802F0C7FE034687F857305B
:1039400097F95730002B07D100220421786802F044
:10395000BBFE034687F8573097F95730002B07D145
:1039600000220521786802F0AFFE034687F8573041
:1039700097F95730002B08D14FF490120021786846
:10398000FFF78AFE034687F8573097F95730002B28
:1039900008D14FF4804201217868FFF77DFE03468D
:1039A00087F8573097F95730002B08D14FF40C1295
:1039B00002217868FFF770FE034687F8573097F9C1
:1039C0005730002B07D1002203217868FFF764FEEF
:1039D000034687F8573097F95730002B0FD17B6893
:1039E000FF2283F83021FF220121786803F0AAF832
:1039F000034687F857307B68012283F8322197F914
:103A00005730002B03D17B68002283F8152197F9EA
:103A1000573018465837BD46B0BD00BF856B010012
:103A2000A470090080B586B000AFF860B9607A6014
:103A30000023FB750221F868FEF713FC0346FB75B3
:103A400097F91730002B1CD1FB6893F8F130BB7548
:103A5000BB7D002B07D1BB6800221A707B68403306
:103A600000221A700DE0FB6893F8F220BB681A7010
:103A7000FB68F3333B617B6840333969184607F0D4
:103A80006DF997F9173018461837BD4680BD00000C
:103A9000B0B584B000AF786039600023FB7307F1E4
:103AA0000D033A6819467868FFF7BCFF0346FB73BD
:103AB00097F90F30002B3BD17B7B002B08D13B6863
:103AC000304A1C46134607CB20606160A26027E0A5
:103AD0007B7B222B0BD87B7B202B08D03B682A4A90
:103AE0001C46134607CB20606160A26018E07B7B18
:103AF000262B08D83B68254A1C46134607CB206076
:103B00006160A2600CE03B68214A1D4614460FCC60
:103B100028606960AA60EB602068286123792B75B2
:103B20003B6820331B491A460B4603CB106051609B
:103B300097F90F30002B08D13B6860331A46C0213B
:103B4000786803F038F80346FB7397F90F30002BC1
:103B500012D107F10E031A46C221786803F02BF840
:103B60000346FB733B68012283F86120BB7B1B0982
:103B7000DAB23B6883F8622097F90F3018461037A5
:103B8000BD46B0BD10BF00081CBF000828BF00081C
:103B900034BF00084CBF000880B584B000AF786027
:103BA00039600023FB7339687868FFF771FF0346BB
:103BB000FB7397F90F3018461037BD4680BD80B5AE
:103BC00084B000AF786039600023FB7307F10E0307
:103BD0001A461321786802F0EEFF0346FB73BB7BA5
:103BE00003F007023B681A60BB7B03F01803002B4D
:103BF00001D0FA23FB7397F90F3018461037BD46F2
:103C000080BD80B584B000AF786039600023FB735D
:103C10007B6893F8DA30BB73BB7B042B12D107F1BE
:103C2000080319467868FFF7CAFF0346FB73BB68B1
:103C3000042B03D13B6801221A701CE03B68002270
:103C40001A7018E007F10D031A461421786802F083
:103C5000B2FF0346FB7397F90F30002B0BD17B7B30
:103C600003F00103002B03D03B6801221A7002E02D
:103C70003B6800221A7097F90F3018461037BD467E
:103C800080BD80B584B000AF78600023FB73022054
:103C900003F0ACF997F90F3018461037BD4680BDD8
:103CA00080B586B000AF78600023FB750023FB73FE
:103CB00000233B6107F10F0319467868FFF7A1FF66
:103CC0000346FB7597F91730002B10D1FB7B012BB6
:103CD0000FD03B6901333B613B69B3F5FA6F02D307
:103CE000F923FB7506E07868FFF7CBFFE2E700BF3A
:103CF00000E000BF97F9173018461837BD4680BD61
:103D000080B584B000AF786039600023FB73002376
:103D1000BB7301220B21786802F014FF0346FB738A
:103D200000220B21786802F00DFF03461A46FB7B48
:103D30001343FB7307F10D031A461321786802F051
:103D40003AFF03461A46FB7B1343FB73BB7B0133ED
:103D5000BB737B7B03F00703002B06D0BB7B022BDE
:103D600003D897F90F30002BD3D0BB7B022B01D99E
:103D7000F423FB7397F90F3018461037BD4680BD0A
:103D800080B584B000AF78600B46FB700023FB73F6
:103D900097F90F30002B0AD1FB7843F00103DBB217
:103DA0001A460021786802F0CDFE0346FB7397F9AE
:103DB0000F30002B04D17868FFF772FF0346FB73C6
:103DC00097F90F30002B05D100217868FFF798FF95
:103DD0000346FB7397F90F30002B06D10022002118
:103DE000786802F0AFFE0346FB7397F90F30184670
:103DF0001037BD4680BD80B584B000AF78600846FE
:103E000011461A460346FB700B46BB7013467B7087
:103E10000023FB730023BB730122FF21786802F0AB
:103E200091FE03461A46FB7B1343FB7300220021DD
:103E3000786802F087FE03461A46FB7B1343FB7348
:103E40000022FF21786802F07DFE03461A46FB7BC4
:103E50001343FB73FB78002B1ED097F82030002B08
:103E600009D0BA69CB21786802F0A5FE03461A464C
:103E7000FB7B1343FB7397F82430002B2AD007F108
:103E80000E031A46EE21786802F095FE03461A46A4
:103E9000FB7B1343FB731DE097F82030002B0AD007
:103EA000BB781A46CB21786802F04CFE03461A46CE
:103EB000FB7B1343FB7397F82430002B0AD07B78ED
:103EC0008022EE21786802F0E5FE03461A46FB7B6D
:103ED0001343FB730122FF21786802F033FE03468F
:103EE0001A46FB7B1343FB7301220021786802F022
:103EF00029FE03461A46FB7B1343FB730022FF2176
:103F0000786802F01FFE03461A46FB7B1343FB73DF
:103F1000BB7B23F01003DAB2FB691A7097F90F30FC
:103F200018461037BD4680BD80B58AB004AFF86032
:103F3000B96011461A460B46FB711346BB7100234C
:103F4000FB750023BB7500237B7500233B750023A5
:103F5000FB74BB79002B03D0FB6893F83031BB7541
:103F600001220121F86802F0EDFD0346FB7597F987
:103F70001730002B05D14021F868FFF701FF0346F9
:103F8000FB7597F91730002B15D1FB79012B12D156
:103F9000397D7A7D002303930123029307F11303F4
:103FA0000193BB6800930B460121F868FFF723FFDC
:103FB0000346FB7502E0BB6800221A7097F91730C0
:103FC000002B12D1BB79002B0FD0BB7D1A460121EB
:103FD000F86802F0B7FD0346FB7597F91730002B20
:103FE00003D1FB68BA7D83F8302197F91730184662
:103FF0001837BD4680BD80B58AB004AFF860B9609F
:1040000011461A460B46FB711346BB710023FB7524
:104010000023BB7500237B7500233B75BB79002B08
:1040200003D0FB6893F83031BB7502220121F86898
:1040300002F088FD0346FB7597F91730002B05D178
:104040000021F868FFF79CFE0346FB7597F91730CF
:10405000002B15D1FB79012B12D1397D7A7D0123FB
:10406000039300230293BB68019307F113030093AA
:104070000B460121F868FFF7BEFE0346FB7502E020
:10408000BB6800221A7097F91730002B12D1BB7948
:10409000002B0FD0BB7D1A460121F86802F052FDBB
:1040A0000346FB7597F91730002B03D1FB68BA7DE7
:1040B00083F8302197F9173018461837BD4680BD70
:1040C00080B586B000AFF860B9607A60FB700023FD
:1040D000FB750023BB75FB6893F83031BB75FA782C
:1040E0000023B968F868FFF71FFF0346FB7597F9CF
:1040F0001730002B07D1FA7800237968F868FFF7AA
:104100007AFF0346FB7597F91730002B0FD1BB7D63
:104110001A460121F86802F015FD0346FB7597F970
:104120001730002B03D1FB68BA7D83F8302197F953
:10413000173018461837BD4680BD80B48BB000AF2D
:10414000F860B9607A603B600823BB610023BB77ED
:104150003B684FF0FF321A607A68BB69B2FBF3F339
:104160007B617B68BA69B3FBF2F2B96901FB02F2C9
:104170009B1A3B617B697B6230E000233B62FA68FB
:104180007B6A13441B78FB777A6A7B699A421ED15B
:10419000FA7F3B6942FA03F3FB773B693B6216E027
:1041A000FB7F03F00103002B0BD00123BB777B6A5D
:1041B000BA6902FB03F23B6A13441A463B681A6071
:1041C00009E0FB7F5B08FB773B6A01333B623A6A9D
:1041D000BB699A42E4D37B6A01337B627A6ABB682B
:1041E0009A4202D2BB7F002BC7D000BF2C37BD46FE
:1041F0005DF8047B7047000080B485B000AF786044
:104200000123FB737B689B09BB60074ABB6852F8BC
:104210002330002B01D10023FB73FB7B184614379E
:10422000BD465DF8047B7047B002002080B489B0C1
:1042300000AFF860B9607A600023FB770823BB61A8
:104240007A68BB69B2FBF3F37B617B68BA69B3FB45
:10425000F2F2B96901FB02F29B1A3B617A69BB6811
:104260009A4202D3CE23FB7710E0FA687B691344AD
:104270001B785AB201213B6901FA03F35BB2134385
:1042800059B2FA687B691344CAB21A7097F91F30A1
:1042900018462437BD465DF8047B704780B584B06E
:1042A00000AF7860396006233A68B021786802F080
:1042B00011FC0346FB7397F90F3018461037BD46C3
:1042C00080BD80B584B000AF7860396006233A685D
:1042D000B021786802F017FC0346FB7397F90F30A2
:1042E00018461037BD4680BD80B58CB000AFF86071
:1042F0007A603B600B46FB72002387F82F303B6CE3
:10430000FB613B6C3B620023BB622BE007F11C03AB
:104310003A6AB96B7868FFF710FFFB69B3F1FF3FAA
:1043200003D1CE2387F82F3020E0FB691A46FB6BC0
:1043300013441846FFF760FF03461A46FB7A934280
:1043400003D0CE2387F82F3010E0FB693B623A6A36
:10435000B96B3868FFF76AFF3B6A01333B62BB6A9F
:104360000133BB62BA6A7B6C9A42CFD3BB6C3A6AA8
:104370001A6097F92F30002B06D13968F868FFF7DB
:104380008DFF034687F82F3097F92F30002B21D16E
:1043900007F114031946F868FFF793FF034687F8FF
:1043A0002F3000237B6211E03A687B6A13441A784D
:1043B00007F114017B6A0B441B789A4203D0CE2389
:1043C00087F82F3006E07B6A01337B627A6ABB6B29
:1043D0009A42E9D397F92F3018463037BD4680BD51
:1043E00080B485B000AF78600B46FB700023FB7390
:1043F000FB78152B32D801A252F823F0554400085F
:10440000554400085D440008554400085D44000818
:104410005D4400085D4400085D4400085D440008F8
:104420005D4400085D4400085D4400085D440008E8
:104430005D4400085D4400085D4400085D440008D8
:104440005D4400085D4400085D44000855440008D0
:10445000554400087B68FA781A7401E0F823FB736E
:1044600097F90F3018461437BD465DF8047B704746
:1044700080B586B000AFF8607A603B600B46FB7297
:104480000023FB7507F114031A460E21F86802F0A9
:10449000AEFB0346FB75BB8A5B041A460E4B13400A
:1044A0007A68136097F91730002B0FD107F11403C6
:1044B0001A460C21F86802F09AFB0346FB75BB8A8A
:1044C0005B041A46044B13403A68136097F917309F
:1044D00018461837BD4680BD0000FE1F80B588B065
:1044E00000AF786039600023FB7700237B61C6E072
:1044F0007B693A6813441B78FB747B6901337B61E9
:10450000FB7CFF2B40F08D807B693A6813441B785D
:104510007B747B6901337B617B7C032B7ED801A29A
:1045200052F823F0354500086F450008A9450008FA
:10453000E34500087B693A6813441B783B747B6948
:1045400001337B617B693A6813441B78FB737B6999
:1045500001337B613B7C9BB21B029AB2FB7B9BB21B
:104560001344BB817B68BA89A3F8342187E07B6957
:104570003A6813441B783B747B6901337B617B6928
:104580003A6813441B78FB737B6901337B613B7C86
:104590009BB21B029AB2FB7B9BB21344BB817B682C
:1045A000BA89A3F836216AE07B693A6813441B781C
:1045B0003B747B6901337B617B693A6813441B78E8
:1045C000FB737B6901337B613B7C9BB21B029AB21C
:1045D000FB7B9BB21344BB817B68BA89A3F838216B
:1045E0004DE07B693A6813441B783B747B69013367
:1045F0007B617B693A6813441B78FB737B690133E9
:104600007B613B7C9BB21B029AB2FB7B9BB2134447
:10461000BB817B68BA89A3F83C2130E0FC23FB779F
:104620002DE0FB7C042B28D87B693A6813441B7867
:10463000BB747B6901337B610023BB610FE07B6945
:104640003A681344197807F10802BB6913440A4613
:104650001A707B6901337B61BB690133BB61FB7CF1
:10466000BA699A42EBDBFB7C07F10802B97C7868F7
:1046700002F030FA0346FB7701E0FC23FB777B690D
:104680003A6813441B78002B04D097F91F30002B95
:104690003FF42EAF97F91F3018462037BD4680BD36
:1046A00080B586B000AF78600B46FB700023FB75C9
:1046B0007B6893F8DA30BB75BB7D012B05D0BB7DE1
:1046C000022B02D0BB7D032B47D107F10C0307F16E
:1046D000100201217868FFF7CBFE0346FB753B69AA
:1046E000B3F57F0F03D8FB68B3F57F0F35D997F982
:1046F0001730002B31D1FB78002B06D01A4978688F
:10470000FFF7ECFE0346FB7527E00422FF217868E3
:1047100002F018FA03461A46FB7D1343FB7500228C
:104720007021786802F00EFA03461A46FB7D1343A7
:10473000FB750022FF21786802F004FA03461A464E
:10474000FB7D1343FB7500228021786802F0FAF9A3
:1047500003461A46FB7D1343FB7597F9173018463D
:104760001837BD4680BD00BF0400002080B586B06C
:1047700000AF78600023FB750123FB7307F10E0384
:1047800019467868FEF78CFA01228021786802F0D9
:10479000D9F90346FB750122FF21786802F0D2F9AE
:1047A0000346FB7500220021786802F0CBF903462E
:1047B000FB757B6893F83A311A469121786802F0CC
:1047C000C1F90346FB7501220021786802F0BAF9AD
:1047D0000346FB750022FF21786802F0B3F9034617
:1047E000FB7500228021786802F0ACF90346FB7566
:1047F000BB7B012B37D0032B4FD0002B67D101227D
:104800000021786802F09EF90346FB75FB7B7B7301
:1048100097F91730002B5DD100233B613B69002BDA
:1048200008D007F10D031A460021786802F0C3F999
:104830000346FB753B6901333B617A7BFB7B13408D
:10484000DBB2FA7B9A4207D197F91730002B03D1DC
:104850003B69B3F5FA6FE1D33B69B3F5FA6F39D32E
:10486000F923FB7536E097F91730002B05D10121AC
:104870007868FFF715FF0346FB7502220021786870
:1048800002F060F90346FB7597F91730002B23D12E
:104890007B68042283F832211EE097F91730002B41
:1048A00005D101217868FFF7FBFE0346FB75042262
:1048B0000021786802F046F90346FB7597F9173036
:1048C000002B0BD17B68042283F8322106E0F82309
:1048D000FB7504E000BF02E000BF00E000BF97F9F5
:1048E000173018461837BD4680BD80B584B000AF7C
:1048F00078600023FB7307F10E0319467868FEF712
:10490000CFF90346FB7397F90F30002B07D1BB7B20
:10491000002B04D17868FFF729FF0346FB7397F952
:104920000F30002B04D17868FFF7BAF90346FB7308
:1049300097F90F30002B06D1BB7B002B03D17B688E
:10494000032283F8322197F90F3018461037BD46FD
:1049500080BD80B485B000AF786039600023FB7300
:104960007B681B7FBB733B68BA7B1A7097F90F306B
:1049700018461437BD465DF8047B704780B588B093
:1049800000AFF860B9607A600023FB777B68002293
:104990001A6007F113031946F868FFF7DAFF0346B8
:1049A000FB7797F91F30002B11D1FB7C002B0ED029
:1049B000FB681B6ABB61BB689B8A1A46BB6902FB2A
:1049C00003F37B617B6980331A0A7B681A6097F96D
:1049D0001F3018462037BD4680BD80B586B000AF79
:1049E000F860B9607A600023FB75BB68DA687B68A1
:1049F0001A6007F110031A46B968F868FFF7BEFF9E
:104A00000346FB7597F91730002B05D17B681A68B0
:104A10003B691A447B681A6097F9173018461837B3
:104A2000BD4680BD80B588B000AFF860B960134660
:104A3000FB710023FB61FB791946F868FEF7AFFBB9
:104A4000B861BB6903F5FA730A4AA2FB03239B0909
:104A50007B61BB684FF47A7202FB03F27B695B08EF
:104A60001A447B69B2FBF3F3FB61FB6918462037FC
:104A7000BD4680BDD34D621080B485B000AF786074
:104A80000023FB604FF08043BB6002E0BB689B08E3
:104A9000BB60BA687B689A42F8D817E0FA68BB68CE
:104AA00013447A689A420BD3FA68BB6813447A6855
:104AB000D31A7B60FB685B08BA681344FB6002E0B2
:104AC000FB685B08FB60BB689B08BB60BB68002B96
:104AD000E4D1FB6818461437BD465DF8047B704787
:104AE00080B59AB000AFF860B9607A603B6012237D
:104AF0007B654FF480433B654223FB640623BB6424
:104B000007237B64002387F84330FB68B3F85431F4
:104B1000FB63FB68D3F85831BB63FB6BBA6B02FBDA
:104B200003F37B637B6B80331B0A7B637B6BFA6BCA
:104B300002FB03F37B6300237B667B68002B1BD0A7
:104B4000BB689B023B637B685B083A6B13447B66E4
:104B50007A6E7B68B2FBF3F37B667A6E13465B007A
:104B600013447B667B6E7A6E02FB03F37B667B6E7F
:104B700003F500431B0C7B663B683A6F02FB03F3B3
:104B8000FB62FB6A03F500431B0CFB62FB6AFA6ADB
:104B900002FB03F3FB627B6F03F500431B0CBB625C
:104BA000BB6C5A08BB6A1A44BB6CB2FBF3F3BB6222
:104BB000BB6A7A6C02FB03F3BB62BB6AB3F5803F4E
:104BC00002D3554B3B6616E0BB6C5A087B6F1A4408
:104BD000BB6CB2FBF3F37B677B6F7A6C02FB03F376
:104BE0007B677B6F03F500431B0C3B663B6E3A6EA5
:104BF00002FB03F33B667B6D9B0303F5FA73474AA5
:104C0000A2FB03239B097B627B6A7A6A02FB03F3A4
:104C10007B62FB6CFA6C02FB03F33B623B6A08337A
:104C20001B093B627A6A3B6AD31A7B627A6A134633
:104C30005B0013441B01FB61FB6903F500539B0BF5
:104C4000FB61FA6A3B6E1344BB61BB6F5B08BA69D8
:104C50001344BB61BA69BB6FB2FBF3F3BB61BB69C1
:104C60009B03BB61FB695B08BA691344BB61BA690A
:104C7000FB69B2FBF3F3BB61BB697A6E02FB03F322
:104C8000BB61BB6903F5FA73244AA2FB03239B09AA
:104C9000BB61BB691B01BB61BB6903F5FA731F4AAA
:104CA000A2FB03239B09BB613B6D80331B0A7B6125
:104CB0007B69002B08D07B695A087B6B1A447B699F
:104CC000B2FBF3F3BB6501E00023BB65B86DFFF7F2
:104CD000D3FE3861BB69002B08D0BB695A087B6BD7
:104CE0001A44BB69B2FBF3F3FB6501E00023FB65EB
:104CF000F86DFFF7C1FEF865FB6F3A691A603A6913
:104D0000FB6D9A4202D9FB6FFA6D1A6097F9433036
:104D100018466837BD4680BD0000F0FFD34D6210D5
:104D200080B5B4B004AFF860B9607A603B604FF40E
:104D30004873C7F890304FF41673C7F88C304FF4AF
:104D4000C813C7F8883041F25C23C7F884309C4B05
:104D5000C7F880304FF47043FB674FF07042D7F8CC
:104D60008C30B2FBF3F3BB67964B7B674FF4004389
:104D70003B674FF44813FB6640F27763BB66002342
:104D800087F89F30FB681B6A7B61BB681B694FF427
:104D90007A7202FB03F31B0C7B66BB68DB683B6625
:104DA00007F110031A46B968F868FFF716FE0346C4
:104DB00087F89F3007F114031A46B968F868FFF7BF
:104DC000DDFD034687F89F303B694FF47A7202FBA2
:104DD00003F3FB65FB6D03F500431B0CFB657B696F
:104DE0004FF47A7202FB03F3C7F8A030D7F8A02083
:104DF000FB6E9A4202D9FB6EC7F8A03097F99F303C
:104E0000002B68D1FB68D3F8DC30C7F8B830FB68FA
:104E100093F8E03087F85B3097F85B301A46D7F8A4
:104E2000B810F868FFF7FEFD7865FB68D3F8E4304A
:104E3000C7F8B430FB6893F8E83087F8533097F838
:104E400053301A46D7F8B410F868FFF7EBFDF86452
:104E50000323C7F8983097F85B30082B02D1022360
:104E6000C7F89830FA6C7B6D1344D7F8982002FB92
:104E700003F3DB02C7F89430D7F8943003F5FA73E4
:104E8000514AA2FB03239B09C7F89430D7F894300A
:104E9000BA6E02FB03F3C7F89430D7F8943003F5E9
:104EA000FA73494AA2FB03239B09C7F894303B6974
:104EB00080331B0A3B613A69D7F8943002FB03F355
:104EC000C7F8BC30D7F8BC3080331B0AC7F8BC30F9
:104ED0003B691B023B6197F99F30002B02D097F989
:104EE0009F3061E1FB6D002B0CD17B68D7F88020EF
:104EF0001A60FB68D7F88020C3F840213B68002285
:104F00001A604FE1D7F8BC30002B02D10123C7F85B
:104F1000BC30D7F89030BB647B6E1A04FB6DB2FBDB
:104F2000F3F3C7F8B030D7F8B020BB6F9A4202D97C
:104F3000BB6FC7F8B030D7F8B030D7F88C2002FB81
:104F400003F3C7F8B030D7F8BC2013465B00134416
:104F50009B001846FFF790FD03465B007B64BB682F
:104F60001B891A467B6F02FB03F33B64FB6D1A043B
:104F7000D7F8A0305B00D31A03F5FA73124AA2FBEC
:104F800003239B09FB63FB6D1B0403F5FA730E4AB5
:104F9000A2FB03239B09BB63FB6B1B02FB63FA6B46
:104FA000BB6BB2FBF3F37B637B6B1B027B63BB6866
:104FB0001B7E002B0AD04FF48033C7F8AC3034E0AE
:104FC000AE878F029A990600D34D62103A6CD7F8DB
:104FD0008430B2FBF3F3C7F8AC307B6BC3F580329F
:104FE000D7F8AC3002FB03F3C7F8AC30D7F8AC20ED
:104FF0003B6F13441B0CC7F8AC30D7F8AC3003F54B
:105000008033C7F8AC30D7F8AC305B08C7F8AC30A9
:10501000D7F8AC30D7F8AC2002FB03F3C7F8AC30BC
:10502000D7F8AC309B0BC7F8AC30D7F8AC30BA6CC3
:1050300002FB03F33B633B6B03F500431B0C3B6339
:105040003B6B3A6B02FB03F33B63D7F8B030FB6278
:10505000FB6A03F500431B0CFB62FB6AFA6A02FB66
:1050600003F3FB623A6BFB6A1344BB62B86AFFF757
:1050700003FD78627B6A1B047B627B6A32334C4A95
:10508000A2FB03235A097B6CB2FBF3F3C7F8A830E9
:10509000D7F8A83040F6B53202FB03F3C7F8A830C2
:1050A000D7F8A83003F59C530833C7F8A830D7F8D1
:1050B000A830404AA2FB03235B0BC7F8A830D7F8FF
:1050C000A820FB6F9A4202D9FB6FC7F8A830D7F827
:1050D000B820D7F8B430134403F5FA73364AA2FB6C
:1050E00003239B093B623B6A5A08D7F888301A446D
:1050F0003B6AB2FBF3F31846FFF7BEFCF861FB69AD
:105100001B02FB61FB6903F5FA732B4AA2FB032325
:105110009B09FB61D7F8A830D7F8A82002FB03F35E
:105120003B63FB69FA6902FB03F3FB623A6BFB6AC0
:1051300013441846FFF7A0FCB861BB694FF47A72BC
:1051400002FB03F3C7F8A430FB6D002B09D0D7F89E
:10515000BC30002B05D0D7F8A420D7F880309A4275
:1051600003D9D7F88030C7F8A4307B68D7F8A420DB
:105170001A607B681A68FB68C3F8402139693B688C
:105180000393D7F894300293D7F8B0300193BB6CF7
:105190000093D7F8AC303A6EF868FFF7A1FC0346ED
:1051A00087F89F3097F99F301846C037BD4680BDBD
:1051B0001F85EB515917B7D1D34D621080B590B010
:1051C00000AFF8607A601A460B46FB7213463B81CB
:1051D000002387F83F30002387F83D30002387F80D
:1051E0003C30002387F83B30002387F82B30002326
:1051F00087F82A30002387F82930002387F82830E1
:10520000002387F832300023FB8200233B61FB7AC6
:10521000DB10DBB203F00F0387F8323097F832303F
:10522000002B17D097F83230052B13D097F8323077
:10523000072B0FD097F832300C2B0BD097F8323069
:105240000D2B07D097F832300E2B03D097F8323061
:105250000F2B03D1012387F83E3002E0002387F8AB
:105260003E3097F93F30002B09D107F12B031A4646
:105270000021F868FDF71CFE034687F83F3097F8D9
:105280002B30002B2ED097F93F30002B2AD107F17D
:10529000100307F12402B96CF868FFF741FD0346DB
:1052A00087F83F3097F93F30002B03D13B699AB222
:1052B000BB6C5A8197F93F30002B13D107F12003C3
:1052C0001A460021F868FDF765FD034687F83F3070
:1052D0003B6A002B06D07A6A3B6A9A4202D90123C4
:1052E00087F83D3097F93F30002B09D107F12903AA
:1052F0001A460221F868FDF7DBFD034687F83F30C8
:1053000097F82930002B44D097F93F30002B40D13B
:1053100007F11C031A460221F868FDF73BFD03461E
:1053200087F83F3097F93F30002B07D10122FF214A
:10533000F86801F007FC034687F83F3097F93F30E3
:10534000002B09D107F116031A46B621F86801F0BF
:105350004EFC034687F83F3097F93F30002B07D1CA
:105360000022FF21F86801F0EDFB034687F83F308B
:10537000FB8A5B02FB62FB68FA6AC3F84821FB699F
:10538000002B06D0FB69FA6A9A4202D9012387F8FA
:105390003C3097F93F30002B09D107F128031A461A
:1053A0000321F868FDF784FD034687F83F3097F83E
:1053B0002830002B23D097F93F30002B1FD13B8999
:1053C000002B02D100237B6305E07B681A023B8936
:1053D000B2FBF3F37B6307F118031A460321F86865
:1053E000FDF7D8FC034687F83F30BB69002B06D099
:1053F000BB697A6B9A4202D2012387F83B3097F956
:105400003F30002B4AD197F83E30012B03D1FB6C83
:10541000FF221A7042E097F83230012B07D097F83C
:105420003230022B03D097F83230032B03D1FB6CC0
:1054300005221A7032E097F83230062B03D097F825
:105440003230092B03D1FB6C04221A7026E097F846
:105450003230082B07D097F832300A2B03D097F858
:105460003C30012B03D1FB6C03221A7016E097F835
:105470003230042B03D097F83B30012B03D1FB6C67
:1054800002221A700AE097F83D30012B03D1FB6C21
:1054900001221A7002E0FB6C00221A70FB6C1B7870
:1054A000002B02D1BB6C00225A8107F12A031A4655
:1054B0000121F868FDF7FCFC034687F83F3097F9B7
:1054C0003F30002B4FD197F82B30002B03D097F8AB
:1054D0003D30012B03D1012387F8333002E0002354
:1054E00087F83330FB6897F8332083F82E2097F83D
:1054F0003230042B03D097F82A30002B03D101233C
:1055000087F8333002E0002387F83330FB6897F8E0
:10551000332083F82F2097F82930002B03D097F8F9
:105520003C30012B03D1012387F8333002E0002304
:1055300087F83330FB6897F8332083F8302097F8EA
:105540002830002B03D097F83B30012B03D10123E7
:1055500087F8333002E0002387F83330FB6897F890
:10556000332083F8312097F93F3018464037BD4645
:1055700080BD0000B0B596B002AF786039600023FE
:1055800087F84F3007F128020C231421786801F0C6
:10559000BAFA034687F84F3097F94F30002B40F0A6
:1055A000D2803B6800229A753B6800221A6097F807
:1055B00032309BB21B029AB297F833309BB213443D
:1055C000A7F84C303B6800225A6097F82E309BB207
:1055D0001B029AB297F82F309BB213449BB25B0226
:1055E0007B643B687A6CDA6097F830309BB21B02C0
:1055F0009AB297F831309BB21344A7F84230B7F80B
:1056000042305B021A463B681A6197F82A309BB217
:105610001B029AB297F82B309BB21344A7F8403084
:105620003B68B7F840209A8297F8283087F83F30D7
:105630007B68B3F85231BB877B6893F8313187F8C8
:105640003B30BB8FB3F57A7F47D0BB8FB7F84C2088
:1056500002FB03F303F5FA73584A82FB031292111B
:10566000DB17D31AA7F84C307B681B6A3B877B6833
:105670001B7F87F8373097F83730002B2DD03B8FC2
:10568000B7F8402002FB03F31B121A467B6C9342CF
:105690000DD197F83B30002B04D042F2B823A7F885
:1056A0004A3016E048F6E023A7F84A3011E0B7F890
:1056B0004C307A6C02FB03F23B8FB7F8401001FBD1
:1056C00003F31B1219467B6C5B1AB2FBF3F3A7F8CA
:1056D0004A30B7F84A30A7F84C3097F83B30002BE7
:1056E0000DD0B7F84C309B089AB23B681A81B7F8D6
:1056F0004C30DBB29B01DAB23B68DA7506E03B68FE
:10570000B7F84C201A813B680022DA75B7F84020C0
:1057100097F83F1007F1360301933B680093134657
:105720007A6C7868FFF74AFD03461A4697F84F30BF
:10573000134387F84F3097F94F30002B03D197F878
:1057400036203B681A7697F94F30002B2FD17B68B3
:1057500007F10C0403F150050FCD0FC495E80700C5
:1057600084E807003B681B89BB823B68DB7D87F8C8
:1057700023303B685B89FB823B685B683B613B682D
:10578000DB68BB613B681B69FB613B689B8A3B84B0
:105790003B681B7E87F824307B6803F1500407F1D7
:1057A0000C050FCD0FC495E8070084E8070097F9B2
:1057B0004F3018465037BD46B0BD00BFD34D6210C4
:1057C00080B584B000AF786039600023FB7300219E
:1057D0007868FEF705FE0346FB7397F90F30002B40
:1057E00004D17868FFF781F80346FB7397F90F300F
:1057F000002B05D139687868FFF7BCFE0346FB73C0
:1058000097F90F30002B05D100217868FEF778FA60
:105810000346FB7397F90F3018461037BD4680BD1D
:1058200080B58AB000AF78603960002387F82730F0
:10583000002387F826307B6893F8303187F82630CC
:1058400097F92730002B07D1C0220121786801F099
:1058500079F9034687F8273097F92730002B08D1CC
:1058600007F1080319467868FFF7AAFF034687F88F
:10587000273097F92730002B07D10122FF217868C4
:1058800001F060F9034687F8273097F92730002B9D
:1058900007D13A68B621786801F0A9F9034687F87C
:1058A000273097F92730002B07D10022FF21786895
:1058B00001F048F9034687F8273097F92730002B85
:1058C00012D197F826301A460121786801F03AF98A
:1058D000034687F8273097F92730002B04D17B68DF
:1058E00097F8262083F8302197F927301846283773
:1058F000BD4680BD90B59DB006AFF860B9607A60D6
:10590000002387F85730B42387F83A3003237B63AA
:105910002C233B6300233B650023BB6100237B6199
:105920004FF42063FB850023FB640023BB64062344
:10593000BB6200237B6200237B64002387F8433033
:1059400000237B7400233B740023FB63002387F850
:105950003B30FB68B3F83C31FB850023BB6409E0B6
:10596000FA68BB6C134403F5927300221A70BB6C87
:105970000133BB64BA6CBB6A9A42F1D30122FF21A6
:10598000F86801F0DFF8034687F8573097F9573089
:10599000002B07D100224F21F86801F0D3F803460D
:1059A00087F8573097F95730002B07D12C224E211A
:1059B000F86801F0C7F8034687F8573097F9573071
:1059C000002B07D10022FF21F86801F0BBF8034645
:1059D00087F8573097F95730002B09D197F83A30AC
:1059E0001A46B621F86801F0ADF8034687F857303B
:1059F00097F95730002B07D100228021F86801F079
:105A0000A1F8034687F8573097F95730002B0AD191
:105A100007F1100207F111010023F868FEF750FBAF
:105A2000034687F8573097F95730002B21D10023D0
:105A30003B653B6DBB610023FB64FB6CD9B2FB682B
:105A400003F59570FB6803F5927497F83A3007F107
:105A5000180204927A6B03923A6D02920193BB6A28
:105A6000009323460246F868FEF73EFC034687F89B
:105A7000573097F95730002B74D1BB693B6507F15C
:105A800012031946F868FFF7CBFE034687F8573034
:105A900097F95730002B61D17B8AFA8D9A425DD2FB
:105AA0000023BB6409E0FA68BB6C134403F59273EE
:105AB00000221A70BB6C0133BB64BA6CBB6A9A4299
:105AC000F1D302E03B6D01333B6597F83A203B6D23
:105AD00013441846FEF790FB0346002B03D13A6DA2
